{
	"Voting.sol": {
		"Voting": {
			"abi": [
				{
					"inputs": [
						{
							"internalType": "bytes32[]",
							"name": "_candidateName",
							"type": "bytes32[]"
						}
					],
					"stateMutability": "nonpayable",
					"type": "constructor"
				},
				{
					"inputs": [
						{
							"internalType": "uint256",
							"name": "",
							"type": "uint256"
						}
					],
					"name": "candidates",
					"outputs": [
						{
							"internalType": "bytes32",
							"name": "name",
							"type": "bytes32"
						},
						{
							"internalType": "uint256",
							"name": "voteCount",
							"type": "uint256"
						}
					],
					"stateMutability": "view",
					"type": "function"
				},
				{
					"inputs": [],
					"name": "creator",
					"outputs": [
						{
							"internalType": "address",
							"name": "",
							"type": "address"
						}
					],
					"stateMutability": "view",
					"type": "function"
				},
				{
					"inputs": [],
					"name": "getWinner",
					"outputs": [
						{
							"internalType": "uint256",
							"name": "winner_",
							"type": "uint256"
						}
					],
					"stateMutability": "view",
					"type": "function"
				},
				{
					"inputs": [],
					"name": "getWinnerName",
					"outputs": [
						{
							"internalType": "bytes32",
							"name": "winnerName_",
							"type": "bytes32"
						}
					],
					"stateMutability": "view",
					"type": "function"
				},
				{
					"inputs": [
						{
							"internalType": "address",
							"name": "voter",
							"type": "address"
						}
					],
					"name": "grantVotingPermission",
					"outputs": [],
					"stateMutability": "nonpayable",
					"type": "function"
				},
				{
					"inputs": [
						{
							"internalType": "uint256",
							"name": "candidateNumber",
							"type": "uint256"
						}
					],
					"name": "vote",
					"outputs": [],
					"stateMutability": "nonpayable",
					"type": "function"
				},
				{
					"inputs": [
						{
							"internalType": "address",
							"name": "",
							"type": "address"
						}
					],
					"name": "voters",
					"outputs": [
						{
							"internalType": "bool",
							"name": "canVote",
							"type": "bool"
						},
						{
							"internalType": "bool",
							"name": "voted",
							"type": "bool"
						},
						{
							"internalType": "uint256",
							"name": "vote",
							"type": "uint256"
						}
					],
					"stateMutability": "view",
					"type": "function"
				}
			],
			"devdoc": {
				"kind": "dev",
				"methods": {},
				"version": 1
			},
			"evm": {
				"assembly": "    /* \"Voting.sol\":35:1566  contract Voting {\r... */\n  mstore(0x40, 0x80)\n    /* \"Voting.sol\":349:586  constructor(bytes32[] memory _candidateName) {\r... */\n  callvalue\n  dup1\n  iszero\n  tag_1\n  jumpi\n  0x00\n  dup1\n  revert\ntag_1:\n  pop\n  mload(0x40)\n  sub(codesize, bytecodeSize)\n  dup1\n  bytecodeSize\n  dup4\n  codecopy\n  dup2\n  dup2\n  add\n  0x40\n  mstore\n  dup2\n  add\n  swap1\n  tag_2\n  swap2\n  swap1\n  tag_3\n  jump\t// in\ntag_2:\n    /* \"Voting.sol\":415:425  msg.sender */\n  caller\n    /* \"Voting.sol\":405:412  creator */\n  0x00\n  dup1\n    /* \"Voting.sol\":405:425  creator = msg.sender */\n  0x0100\n  exp\n  dup2\n  sload\n  dup2\n  0xffffffffffffffffffffffffffffffffffffffff\n  mul\n  not\n  and\n  swap1\n  dup4\n  0xffffffffffffffffffffffffffffffffffffffff\n  and\n  mul\n  or\n  swap1\n  sstore\n  pop\n    /* \"Voting.sol\":441:447  uint i */\n  0x00\n    /* \"Voting.sol\":436:579  for (uint i = 0; i < _candidateName.length; i++) {\r... */\ntag_6:\n    /* \"Voting.sol\":457:471  _candidateName */\n  dup2\n    /* \"Voting.sol\":457:478  _candidateName.length */\n  mload\n    /* \"Voting.sol\":453:454  i */\n  dup2\n    /* \"Voting.sol\":453:478  i < _candidateName.length */\n  lt\n    /* \"Voting.sol\":436:579  for (uint i = 0; i < _candidateName.length; i++) {\r... */\n  iszero\n  tag_7\n  jumpi\n    /* \"Voting.sol\":500:510  candidates */\n  0x02\n    /* \"Voting.sol\":516:566  Candidate({name: _candidateName[i], voteCount: 0}) */\n  mload(0x40)\n  dup1\n  0x40\n  add\n  0x40\n  mstore\n  dup1\n    /* \"Voting.sol\":533:547  _candidateName */\n  dup5\n    /* \"Voting.sol\":548:549  i */\n  dup5\n    /* \"Voting.sol\":533:550  _candidateName[i] */\n  dup2\n  mload\n  dup2\n  lt\n  tag_9\n  jumpi\n  tag_10\n  tag_11\n  jump\t// in\ntag_10:\ntag_9:\n  0x20\n  mul\n  0x20\n  add\n  add\n  mload\n    /* \"Voting.sol\":516:566  Candidate({name: _candidateName[i], voteCount: 0}) */\n  dup2\n  mstore\n  0x20\n  add\n    /* \"Voting.sol\":563:564  0 */\n  0x00\n    /* \"Voting.sol\":516:566  Candidate({name: _candidateName[i], voteCount: 0}) */\n  dup2\n  mstore\n  pop\n    /* \"Voting.sol\":500:567  candidates.push(Candidate({name: _candidateName[i], voteCount: 0})) */\n  swap1\n  dup1\n  0x01\n  dup2\n  sload\n  add\n  dup1\n  dup3\n  sstore\n  dup1\n  swap2\n  pop\n  pop\n  0x01\n  swap1\n  sub\n  swap1\n  0x00\n  mstore\n  keccak256(0x00, 0x20)\n  swap1\n  0x02\n  mul\n  add\n  0x00\n  swap1\n  swap2\n  swap1\n  swap2\n  swap1\n  swap2\n  pop\n  0x00\n  dup3\n  add\n  mload\n  dup2\n  0x00\n  add\n  sstore\n  0x20\n  dup3\n  add\n  mload\n  dup2\n  0x01\n  add\n  sstore\n  pop\n  pop\n    /* \"Voting.sol\":480:483  i++ */\n  dup1\n  dup1\n  tag_13\n  swap1\n  tag_14\n  jump\t// in\ntag_13:\n  swap2\n  pop\n  pop\n    /* \"Voting.sol\":436:579  for (uint i = 0; i < _candidateName.length; i++) {\r... */\n  jump(tag_6)\ntag_7:\n  pop\n    /* \"Voting.sol\":349:586  constructor(bytes32[] memory _candidateName) {\r... */\n  pop\n    /* \"Voting.sol\":35:1566  contract Voting {\r... */\n  jump(tag_15)\n    /* \"#utility.yul\":24:768   */\ntag_17:\n    /* \"#utility.yul\":131:136   */\n  0x00\n    /* \"#utility.yul\":156:237   */\n  tag_19\n    /* \"#utility.yul\":172:236   */\n  tag_20\n    /* \"#utility.yul\":229:235   */\n  dup5\n    /* \"#utility.yul\":172:236   */\n  tag_21\n  jump\t// in\ntag_20:\n    /* \"#utility.yul\":156:237   */\n  tag_22\n  jump\t// in\ntag_19:\n    /* \"#utility.yul\":147:237   */\n  swap1\n  pop\n    /* \"#utility.yul\":257:262   */\n  dup1\n    /* \"#utility.yul\":286:292   */\n  dup4\n    /* \"#utility.yul\":279:284   */\n  dup3\n    /* \"#utility.yul\":272:293   */\n  mstore\n    /* \"#utility.yul\":320:324   */\n  0x20\n    /* \"#utility.yul\":313:318   */\n  dup3\n    /* \"#utility.yul\":309:325   */\n  add\n    /* \"#utility.yul\":302:325   */\n  swap1\n  pop\n    /* \"#utility.yul\":346:352   */\n  dup3\n    /* \"#utility.yul\":396:399   */\n  dup6\n    /* \"#utility.yul\":388:392   */\n  0x20\n    /* \"#utility.yul\":380:386   */\n  dup7\n    /* \"#utility.yul\":376:393   */\n  mul\n    /* \"#utility.yul\":371:374   */\n  dup3\n    /* \"#utility.yul\":367:394   */\n  add\n    /* \"#utility.yul\":364:400   */\n  gt\n    /* \"#utility.yul\":361:504   */\n  iszero\n  tag_23\n  jumpi\n    /* \"#utility.yul\":415:494   */\n  tag_24\n  tag_25\n  jump\t// in\ntag_24:\n    /* \"#utility.yul\":361:504   */\ntag_23:\n    /* \"#utility.yul\":528:529   */\n  0x00\n    /* \"#utility.yul\":513:762   */\ntag_26:\n    /* \"#utility.yul\":538:544   */\n  dup6\n    /* \"#utility.yul\":535:536   */\n  dup2\n    /* \"#utility.yul\":532:545   */\n  lt\n    /* \"#utility.yul\":513:762   */\n  iszero\n  tag_28\n  jumpi\n    /* \"#utility.yul\":606:609   */\n  dup2\n    /* \"#utility.yul\":635:683   */\n  tag_29\n    /* \"#utility.yul\":679:682   */\n  dup9\n    /* \"#utility.yul\":667:677   */\n  dup3\n    /* \"#utility.yul\":635:683   */\n  tag_30\n  jump\t// in\ntag_29:\n    /* \"#utility.yul\":630:633   */\n  dup5\n    /* \"#utility.yul\":623:684   */\n  mstore\n    /* \"#utility.yul\":713:717   */\n  0x20\n    /* \"#utility.yul\":708:711   */\n  dup5\n    /* \"#utility.yul\":704:718   */\n  add\n    /* \"#utility.yul\":697:718   */\n  swap4\n  pop\n    /* \"#utility.yul\":747:751   */\n  0x20\n    /* \"#utility.yul\":742:745   */\n  dup4\n    /* \"#utility.yul\":738:752   */\n  add\n    /* \"#utility.yul\":731:752   */\n  swap3\n  pop\n    /* \"#utility.yul\":573:762   */\n  pop\n    /* \"#utility.yul\":560:561   */\n  0x01\n    /* \"#utility.yul\":557:558   */\n  dup2\n    /* \"#utility.yul\":553:562   */\n  add\n    /* \"#utility.yul\":548:562   */\n  swap1\n  pop\n    /* \"#utility.yul\":513:762   */\n  jump(tag_26)\ntag_28:\n    /* \"#utility.yul\":517:531   */\n  pop\n    /* \"#utility.yul\":137:768   */\n  pop\n  pop\n    /* \"#utility.yul\":24:768   */\n  swap4\n  swap3\n  pop\n  pop\n  pop\n  jump\t// out\n    /* \"#utility.yul\":791:1176   */\ntag_31:\n    /* \"#utility.yul\":873:878   */\n  0x00\n    /* \"#utility.yul\":922:925   */\n  dup3\n    /* \"#utility.yul\":915:919   */\n  0x1f\n    /* \"#utility.yul\":907:913   */\n  dup4\n    /* \"#utility.yul\":903:920   */\n  add\n    /* \"#utility.yul\":899:926   */\n  slt\n    /* \"#utility.yul\":889:1011   */\n  tag_33\n  jumpi\n    /* \"#utility.yul\":930:1009   */\n  tag_34\n  tag_35\n  jump\t// in\ntag_34:\n    /* \"#utility.yul\":889:1011   */\ntag_33:\n    /* \"#utility.yul\":1040:1046   */\n  dup2\n    /* \"#utility.yul\":1034:1047   */\n  mload\n    /* \"#utility.yul\":1065:1170   */\n  tag_36\n    /* \"#utility.yul\":1166:1169   */\n  dup5\n    /* \"#utility.yul\":1158:1164   */\n  dup3\n    /* \"#utility.yul\":1151:1155   */\n  0x20\n    /* \"#utility.yul\":1143:1149   */\n  dup7\n    /* \"#utility.yul\":1139:1156   */\n  add\n    /* \"#utility.yul\":1065:1170   */\n  tag_17\n  jump\t// in\ntag_36:\n    /* \"#utility.yul\":1056:1170   */\n  swap2\n  pop\n    /* \"#utility.yul\":879:1176   */\n  pop\n    /* \"#utility.yul\":791:1176   */\n  swap3\n  swap2\n  pop\n  pop\n  jump\t// out\n    /* \"#utility.yul\":1182:1325   */\ntag_30:\n    /* \"#utility.yul\":1239:1244   */\n  0x00\n    /* \"#utility.yul\":1270:1276   */\n  dup2\n    /* \"#utility.yul\":1264:1277   */\n  mload\n    /* \"#utility.yul\":1255:1277   */\n  swap1\n  pop\n    /* \"#utility.yul\":1286:1319   */\n  tag_38\n    /* \"#utility.yul\":1313:1318   */\n  dup2\n    /* \"#utility.yul\":1286:1319   */\n  tag_39\n  jump\t// in\ntag_38:\n    /* \"#utility.yul\":1182:1325   */\n  swap3\n  swap2\n  pop\n  pop\n  jump\t// out\n    /* \"#utility.yul\":1331:1885   */\ntag_3:\n    /* \"#utility.yul\":1426:1432   */\n  0x00\n    /* \"#utility.yul\":1475:1477   */\n  0x20\n    /* \"#utility.yul\":1463:1472   */\n  dup3\n    /* \"#utility.yul\":1454:1461   */\n  dup5\n    /* \"#utility.yul\":1450:1473   */\n  sub\n    /* \"#utility.yul\":1446:1478   */\n  slt\n    /* \"#utility.yul\":1443:1562   */\n  iszero\n  tag_41\n  jumpi\n    /* \"#utility.yul\":1481:1560   */\n  tag_42\n  tag_43\n  jump\t// in\ntag_42:\n    /* \"#utility.yul\":1443:1562   */\ntag_41:\n    /* \"#utility.yul\":1622:1623   */\n  0x00\n    /* \"#utility.yul\":1611:1620   */\n  dup3\n    /* \"#utility.yul\":1607:1624   */\n  add\n    /* \"#utility.yul\":1601:1625   */\n  mload\n    /* \"#utility.yul\":1652:1670   */\n  0xffffffffffffffff\n    /* \"#utility.yul\":1644:1650   */\n  dup2\n    /* \"#utility.yul\":1641:1671   */\n  gt\n    /* \"#utility.yul\":1638:1755   */\n  iszero\n  tag_44\n  jumpi\n    /* \"#utility.yul\":1674:1753   */\n  tag_45\n  tag_46\n  jump\t// in\ntag_45:\n    /* \"#utility.yul\":1638:1755   */\ntag_44:\n    /* \"#utility.yul\":1779:1868   */\n  tag_47\n    /* \"#utility.yul\":1860:1867   */\n  dup5\n    /* \"#utility.yul\":1851:1857   */\n  dup3\n    /* \"#utility.yul\":1840:1849   */\n  dup6\n    /* \"#utility.yul\":1836:1858   */\n  add\n    /* \"#utility.yul\":1779:1868   */\n  tag_31\n  jump\t// in\ntag_47:\n    /* \"#utility.yul\":1769:1868   */\n  swap2\n  pop\n    /* \"#utility.yul\":1572:1878   */\n  pop\n    /* \"#utility.yul\":1331:1885   */\n  swap3\n  swap2\n  pop\n  pop\n  jump\t// out\n    /* \"#utility.yul\":1891:2020   */\ntag_22:\n    /* \"#utility.yul\":1925:1931   */\n  0x00\n    /* \"#utility.yul\":1952:1972   */\n  tag_49\n  tag_50\n  jump\t// in\ntag_49:\n    /* \"#utility.yul\":1942:1972   */\n  swap1\n  pop\n    /* \"#utility.yul\":1981:2014   */\n  tag_51\n    /* \"#utility.yul\":2009:2013   */\n  dup3\n    /* \"#utility.yul\":2001:2007   */\n  dup3\n    /* \"#utility.yul\":1981:2014   */\n  tag_52\n  jump\t// in\ntag_51:\n    /* \"#utility.yul\":1891:2020   */\n  swap2\n  swap1\n  pop\n  jump\t// out\n    /* \"#utility.yul\":2026:2101   */\ntag_50:\n    /* \"#utility.yul\":2059:2065   */\n  0x00\n    /* \"#utility.yul\":2092:2094   */\n  0x40\n    /* \"#utility.yul\":2086:2095   */\n  mload\n    /* \"#utility.yul\":2076:2095   */\n  swap1\n  pop\n    /* \"#utility.yul\":2026:2101   */\n  swap1\n  jump\t// out\n    /* \"#utility.yul\":2107:2418   */\ntag_21:\n    /* \"#utility.yul\":2184:2188   */\n  0x00\n    /* \"#utility.yul\":2274:2292   */\n  0xffffffffffffffff\n    /* \"#utility.yul\":2266:2272   */\n  dup3\n    /* \"#utility.yul\":2263:2293   */\n  gt\n    /* \"#utility.yul\":2260:2316   */\n  iszero\n  tag_55\n  jumpi\n    /* \"#utility.yul\":2296:2314   */\n  tag_56\n  tag_57\n  jump\t// in\ntag_56:\n    /* \"#utility.yul\":2260:2316   */\ntag_55:\n    /* \"#utility.yul\":2346:2350   */\n  0x20\n    /* \"#utility.yul\":2338:2344   */\n  dup3\n    /* \"#utility.yul\":2334:2351   */\n  mul\n    /* \"#utility.yul\":2326:2351   */\n  swap1\n  pop\n    /* \"#utility.yul\":2406:2410   */\n  0x20\n    /* \"#utility.yul\":2400:2404   */\n  dup2\n    /* \"#utility.yul\":2396:2411   */\n  add\n    /* \"#utility.yul\":2388:2411   */\n  swap1\n  pop\n    /* \"#utility.yul\":2107:2418   */\n  swap2\n  swap1\n  pop\n  jump\t// out\n    /* \"#utility.yul\":2424:2501   */\ntag_58:\n    /* \"#utility.yul\":2461:2468   */\n  0x00\n    /* \"#utility.yul\":2490:2495   */\n  dup2\n    /* \"#utility.yul\":2479:2495   */\n  swap1\n  pop\n    /* \"#utility.yul\":2424:2501   */\n  swap2\n  swap1\n  pop\n  jump\t// out\n    /* \"#utility.yul\":2507:2584   */\ntag_60:\n    /* \"#utility.yul\":2544:2551   */\n  0x00\n    /* \"#utility.yul\":2573:2578   */\n  dup2\n    /* \"#utility.yul\":2562:2578   */\n  swap1\n  pop\n    /* \"#utility.yul\":2507:2584   */\n  swap2\n  swap1\n  pop\n  jump\t// out\n    /* \"#utility.yul\":2590:2871   */\ntag_52:\n    /* \"#utility.yul\":2673:2700   */\n  tag_63\n    /* \"#utility.yul\":2695:2699   */\n  dup3\n    /* \"#utility.yul\":2673:2700   */\n  tag_64\n  jump\t// in\ntag_63:\n    /* \"#utility.yul\":2665:2671   */\n  dup2\n    /* \"#utility.yul\":2661:2701   */\n  add\n    /* \"#utility.yul\":2803:2809   */\n  dup2\n    /* \"#utility.yul\":2791:2801   */\n  dup2\n    /* \"#utility.yul\":2788:2810   */\n  lt\n    /* \"#utility.yul\":2767:2785   */\n  0xffffffffffffffff\n    /* \"#utility.yul\":2755:2765   */\n  dup3\n    /* \"#utility.yul\":2752:2786   */\n  gt\n    /* \"#utility.yul\":2749:2811   */\n  or\n    /* \"#utility.yul\":2746:2834   */\n  iszero\n  tag_65\n  jumpi\n    /* \"#utility.yul\":2814:2832   */\n  tag_66\n  tag_57\n  jump\t// in\ntag_66:\n    /* \"#utility.yul\":2746:2834   */\ntag_65:\n    /* \"#utility.yul\":2854:2864   */\n  dup1\n    /* \"#utility.yul\":2850:2852   */\n  0x40\n    /* \"#utility.yul\":2843:2865   */\n  mstore\n    /* \"#utility.yul\":2633:2871   */\n  pop\n    /* \"#utility.yul\":2590:2871   */\n  pop\n  pop\n  jump\t// out\n    /* \"#utility.yul\":2877:3110   */\ntag_14:\n    /* \"#utility.yul\":2916:2919   */\n  0x00\n    /* \"#utility.yul\":2939:2963   */\n  tag_68\n    /* \"#utility.yul\":2957:2962   */\n  dup3\n    /* \"#utility.yul\":2939:2963   */\n  tag_60\n  jump\t// in\ntag_68:\n    /* \"#utility.yul\":2930:2963   */\n  swap2\n  pop\n    /* \"#utility.yul\":2985:3051   */\n  0xffffffffffffffffffffffffffffffffffffffffffffffffffffffffffffffff\n    /* \"#utility.yul\":2978:2983   */\n  dup3\n    /* \"#utility.yul\":2975:3052   */\n  eq\n    /* \"#utility.yul\":2972:3075   */\n  iszero\n  tag_69\n  jumpi\n    /* \"#utility.yul\":3055:3073   */\n  tag_70\n  tag_71\n  jump\t// in\ntag_70:\n    /* \"#utility.yul\":2972:3075   */\ntag_69:\n    /* \"#utility.yul\":3102:3103   */\n  0x01\n    /* \"#utility.yul\":3095:3100   */\n  dup3\n    /* \"#utility.yul\":3091:3104   */\n  add\n    /* \"#utility.yul\":3084:3104   */\n  swap1\n  pop\n    /* \"#utility.yul\":2877:3110   */\n  swap2\n  swap1\n  pop\n  jump\t// out\n    /* \"#utility.yul\":3116:3296   */\ntag_71:\n    /* \"#utility.yul\":3164:3241   */\n  0x4e487b7100000000000000000000000000000000000000000000000000000000\n    /* \"#utility.yul\":3161:3162   */\n  0x00\n    /* \"#utility.yul\":3154:3242   */\n  mstore\n    /* \"#utility.yul\":3261:3265   */\n  0x11\n    /* \"#utility.yul\":3258:3259   */\n  0x04\n    /* \"#utility.yul\":3251:3266   */\n  mstore\n    /* \"#utility.yul\":3285:3289   */\n  0x24\n    /* \"#utility.yul\":3282:3283   */\n  0x00\n    /* \"#utility.yul\":3275:3290   */\n  revert\n    /* \"#utility.yul\":3302:3482   */\ntag_11:\n    /* \"#utility.yul\":3350:3427   */\n  0x4e487b7100000000000000000000000000000000000000000000000000000000\n    /* \"#utility.yul\":3347:3348   */\n  0x00\n    /* \"#utility.yul\":3340:3428   */\n  mstore\n    /* \"#utility.yul\":3447:3451   */\n  0x32\n    /* \"#utility.yul\":3444:3445   */\n  0x04\n    /* \"#utility.yul\":3437:3452   */\n  mstore\n    /* \"#utility.yul\":3471:3475   */\n  0x24\n    /* \"#utility.yul\":3468:3469   */\n  0x00\n    /* \"#utility.yul\":3461:3476   */\n  revert\n    /* \"#utility.yul\":3488:3668   */\ntag_57:\n    /* \"#utility.yul\":3536:3613   */\n  0x4e487b7100000000000000000000000000000000000000000000000000000000\n    /* \"#utility.yul\":3533:3534   */\n  0x00\n    /* \"#utility.yul\":3526:3614   */\n  mstore\n    /* \"#utility.yul\":3633:3637   */\n  0x41\n    /* \"#utility.yul\":3630:3631   */\n  0x04\n    /* \"#utility.yul\":3623:3638   */\n  mstore\n    /* \"#utility.yul\":3657:3661   */\n  0x24\n    /* \"#utility.yul\":3654:3655   */\n  0x00\n    /* \"#utility.yul\":3647:3662   */\n  revert\n    /* \"#utility.yul\":3674:3791   */\ntag_35:\n    /* \"#utility.yul\":3783:3784   */\n  0x00\n    /* \"#utility.yul\":3780:3781   */\n  dup1\n    /* \"#utility.yul\":3773:3785   */\n  revert\n    /* \"#utility.yul\":3797:3914   */\ntag_25:\n    /* \"#utility.yul\":3906:3907   */\n  0x00\n    /* \"#utility.yul\":3903:3904   */\n  dup1\n    /* \"#utility.yul\":3896:3908   */\n  revert\n    /* \"#utility.yul\":3920:4037   */\ntag_46:\n    /* \"#utility.yul\":4029:4030   */\n  0x00\n    /* \"#utility.yul\":4026:4027   */\n  dup1\n    /* \"#utility.yul\":4019:4031   */\n  revert\n    /* \"#utility.yul\":4043:4160   */\ntag_43:\n    /* \"#utility.yul\":4152:4153   */\n  0x00\n    /* \"#utility.yul\":4149:4150   */\n  dup1\n    /* \"#utility.yul\":4142:4154   */\n  revert\n    /* \"#utility.yul\":4166:4268   */\ntag_64:\n    /* \"#utility.yul\":4207:4213   */\n  0x00\n    /* \"#utility.yul\":4258:4260   */\n  0x1f\n    /* \"#utility.yul\":4254:4261   */\n  not\n    /* \"#utility.yul\":4249:4251   */\n  0x1f\n    /* \"#utility.yul\":4242:4247   */\n  dup4\n    /* \"#utility.yul\":4238:4252   */\n  add\n    /* \"#utility.yul\":4234:4262   */\n  and\n    /* \"#utility.yul\":4224:4262   */\n  swap1\n  pop\n    /* \"#utility.yul\":4166:4268   */\n  swap2\n  swap1\n  pop\n  jump\t// out\n    /* \"#utility.yul\":4274:4396   */\ntag_39:\n    /* \"#utility.yul\":4347:4371   */\n  tag_81\n    /* \"#utility.yul\":4365:4370   */\n  dup2\n    /* \"#utility.yul\":4347:4371   */\n  tag_58\n  jump\t// in\ntag_81:\n    /* \"#utility.yul\":4340:4345   */\n  dup2\n    /* \"#utility.yul\":4337:4372   */\n  eq\n    /* \"#utility.yul\":4327:4390   */\n  tag_82\n  jumpi\n    /* \"#utility.yul\":4386:4387   */\n  0x00\n    /* \"#utility.yul\":4383:4384   */\n  dup1\n    /* \"#utility.yul\":4376:4388   */\n  revert\n    /* \"#utility.yul\":4327:4390   */\ntag_82:\n    /* \"#utility.yul\":4274:4396   */\n  pop\n  jump\t// out\n    /* \"Voting.sol\":35:1566  contract Voting {\r... */\ntag_15:\n  dataSize(sub_0)\n  dup1\n  dataOffset(sub_0)\n  0x00\n  codecopy\n  0x00\n  return\nstop\n\nsub_0: assembly {\n        /* \"Voting.sol\":35:1566  contract Voting {\r... */\n      mstore(0x40, 0x80)\n      callvalue\n      dup1\n      iszero\n      tag_1\n      jumpi\n      0x00\n      dup1\n      revert\n    tag_1:\n      pop\n      jumpi(tag_2, lt(calldatasize, 0x04))\n      shr(0xe0, calldataload(0x00))\n      dup1\n      0x3477ee2e\n      gt\n      tag_10\n      jumpi\n      dup1\n      0x3477ee2e\n      eq\n      tag_6\n      jumpi\n      dup1\n      0x887833dd\n      eq\n      tag_7\n      jumpi\n      dup1\n      0x8e7ea5b2\n      eq\n      tag_8\n      jumpi\n      dup1\n      0xa3ec138d\n      eq\n      tag_9\n      jumpi\n      jump(tag_2)\n    tag_10:\n      dup1\n      0x0121b93f\n      eq\n      tag_3\n      jumpi\n      dup1\n      0x02d05d3f\n      eq\n      tag_4\n      jumpi\n      dup1\n      0x2bfda515\n      eq\n      tag_5\n      jumpi\n    tag_2:\n      0x00\n      dup1\n      revert\n        /* \"Voting.sol\":785:1084  function vote(uint candidateNumber) external{\r... */\n    tag_3:\n      tag_11\n      0x04\n      dup1\n      calldatasize\n      sub\n      dup2\n      add\n      swap1\n      tag_12\n      swap2\n      swap1\n      tag_13\n      jump\t// in\n    tag_12:\n      tag_14\n      jump\t// in\n    tag_11:\n      stop\n        /* \"Voting.sol\":232:254  address public creator */\n    tag_4:\n      tag_15\n      tag_16\n      jump\t// in\n    tag_15:\n      mload(0x40)\n      tag_17\n      swap2\n      swap1\n      tag_18\n      jump\t// in\n    tag_17:\n      mload(0x40)\n      dup1\n      swap2\n      sub\n      swap1\n      return\n        /* \"Voting.sol\":1433:1563  function getWinnerName() external view returns (bytes32 winnerName_) {\r... */\n    tag_5:\n      tag_19\n      tag_20\n      jump\t// in\n    tag_19:\n      mload(0x40)\n      tag_21\n      swap2\n      swap1\n      tag_22\n      jump\t// in\n    tag_21:\n      mload(0x40)\n      dup1\n      swap2\n      sub\n      swap1\n      return\n        /* \"Voting.sol\":311:340  Candidate[] public candidates */\n    tag_6:\n      tag_23\n      0x04\n      dup1\n      calldatasize\n      sub\n      dup2\n      add\n      swap1\n      tag_24\n      swap2\n      swap1\n      tag_13\n      jump\t// in\n    tag_24:\n      tag_25\n      jump\t// in\n    tag_23:\n      mload(0x40)\n      tag_26\n      swap3\n      swap2\n      swap1\n      tag_27\n      jump\t// in\n    tag_26:\n      mload(0x40)\n      dup1\n      swap2\n      sub\n      swap1\n      return\n        /* \"Voting.sol\":594:777  function grantVotingPermission(address voter) external {\r... */\n    tag_7:\n      tag_28\n      0x04\n      dup1\n      calldatasize\n      sub\n      dup2\n      add\n      swap1\n      tag_29\n      swap2\n      swap1\n      tag_30\n      jump\t// in\n    tag_29:\n      tag_31\n      jump\t// in\n    tag_28:\n      stop\n        /* \"Voting.sol\":1092:1425  function getWinner() public view returns (uint winner_) {\r... */\n    tag_8:\n      tag_32\n      tag_33\n      jump\t// in\n    tag_32:\n      mload(0x40)\n      tag_34\n      swap2\n      swap1\n      tag_35\n      jump\t// in\n    tag_34:\n      mload(0x40)\n      dup1\n      swap2\n      sub\n      swap1\n      return\n        /* \"Voting.sol\":263:302  mapping(address => Voter) public voters */\n    tag_9:\n      tag_36\n      0x04\n      dup1\n      calldatasize\n      sub\n      dup2\n      add\n      swap1\n      tag_37\n      swap2\n      swap1\n      tag_30\n      jump\t// in\n    tag_37:\n      tag_38\n      jump\t// in\n    tag_36:\n      mload(0x40)\n      tag_39\n      swap4\n      swap3\n      swap2\n      swap1\n      tag_40\n      jump\t// in\n    tag_39:\n      mload(0x40)\n      dup1\n      swap2\n      sub\n      swap1\n      return\n        /* \"Voting.sol\":785:1084  function vote(uint candidateNumber) external{\r... */\n    tag_14:\n        /* \"Voting.sol\":840:860  Voter storage sender */\n      0x00\n        /* \"Voting.sol\":863:869  voters */\n      0x01\n        /* \"Voting.sol\":863:881  voters[msg.sender] */\n      0x00\n        /* \"Voting.sol\":870:880  msg.sender */\n      caller\n        /* \"Voting.sol\":863:881  voters[msg.sender] */\n      0xffffffffffffffffffffffffffffffffffffffff\n      and\n      0xffffffffffffffffffffffffffffffffffffffff\n      and\n      dup2\n      mstore\n      0x20\n      add\n      swap1\n      dup2\n      mstore\n      0x20\n      add\n      0x00\n      keccak256\n        /* \"Voting.sol\":840:881  Voter storage sender = voters[msg.sender] */\n      swap1\n      pop\n        /* \"Voting.sol\":918:922  true */\n      0x01\n        /* \"Voting.sol\":900:922  sender.canVote == true */\n      iszero\n      iszero\n        /* \"Voting.sol\":900:906  sender */\n      dup2\n        /* \"Voting.sol\":900:914  sender.canVote */\n      0x00\n      add\n      0x00\n      swap1\n      sload\n      swap1\n      0x0100\n      exp\n      swap1\n      div\n      0xff\n      and\n        /* \"Voting.sol\":900:922  sender.canVote == true */\n      iszero\n      iszero\n      eq\n        /* \"Voting.sol\":892:923  require(sender.canVote == true) */\n      tag_42\n      jumpi\n      0x00\n      dup1\n      revert\n    tag_42:\n        /* \"Voting.sol\":943:949  sender */\n      dup1\n        /* \"Voting.sol\":943:955  sender.voted */\n      0x00\n      add\n      0x01\n      swap1\n      sload\n      swap1\n      0x0100\n      exp\n      swap1\n      div\n      0xff\n      and\n        /* \"Voting.sol\":942:955  !sender.voted */\n      iszero\n        /* \"Voting.sol\":934:956  require(!sender.voted) */\n      tag_43\n      jumpi\n      0x00\n      dup1\n      revert\n    tag_43:\n        /* \"Voting.sol\":982:986  true */\n      0x01\n        /* \"Voting.sol\":967:973  sender */\n      dup2\n        /* \"Voting.sol\":967:979  sender.voted */\n      0x00\n      add\n      0x01\n        /* \"Voting.sol\":967:986  sender.voted = true */\n      0x0100\n      exp\n      dup2\n      sload\n      dup2\n      0xff\n      mul\n      not\n      and\n      swap1\n      dup4\n      iszero\n      iszero\n      mul\n      or\n      swap1\n      sstore\n      pop\n        /* \"Voting.sol\":1011:1026  candidateNumber */\n      dup2\n        /* \"Voting.sol\":997:1003  sender */\n      dup2\n        /* \"Voting.sol\":997:1008  sender.vote */\n      0x01\n      add\n        /* \"Voting.sol\":997:1026  sender.vote = candidateNumber */\n      dup2\n      swap1\n      sstore\n      pop\n        /* \"Voting.sol\":1037:1047  candidates */\n      0x02\n        /* \"Voting.sol\":1048:1063  candidateNumber */\n      dup3\n        /* \"Voting.sol\":1037:1064  candidates[candidateNumber] */\n      dup2\n      sload\n      dup2\n      lt\n      tag_44\n      jumpi\n      tag_45\n      tag_46\n      jump\t// in\n    tag_45:\n    tag_44:\n      swap1\n      0x00\n      mstore\n      keccak256(0x00, 0x20)\n      swap1\n      0x02\n      mul\n      add\n        /* \"Voting.sol\":1037:1074  candidates[candidateNumber].voteCount */\n      0x01\n      add\n      0x00\n        /* \"Voting.sol\":1037:1076  candidates[candidateNumber].voteCount++ */\n      dup2\n      sload\n      dup1\n      swap3\n      swap2\n      swap1\n      tag_48\n      swap1\n      tag_49\n      jump\t// in\n    tag_48:\n      swap2\n      swap1\n      pop\n      sstore\n      pop\n        /* \"Voting.sol\":829:1084  {\r... */\n      pop\n        /* \"Voting.sol\":785:1084  function vote(uint candidateNumber) external{\r... */\n      pop\n      jump\t// out\n        /* \"Voting.sol\":232:254  address public creator */\n    tag_16:\n      0x00\n      dup1\n      sload\n      swap1\n      0x0100\n      exp\n      swap1\n      div\n      0xffffffffffffffffffffffffffffffffffffffff\n      and\n      dup2\n      jump\t// out\n        /* \"Voting.sol\":1433:1563  function getWinnerName() external view returns (bytes32 winnerName_) {\r... */\n    tag_20:\n        /* \"Voting.sol\":1481:1500  bytes32 winnerName_ */\n      0x00\n        /* \"Voting.sol\":1527:1537  candidates */\n      0x02\n        /* \"Voting.sol\":1538:1549  getWinner() */\n      tag_51\n        /* \"Voting.sol\":1538:1547  getWinner */\n      tag_33\n        /* \"Voting.sol\":1538:1549  getWinner() */\n      jump\t// in\n    tag_51:\n        /* \"Voting.sol\":1527:1550  candidates[getWinner()] */\n      dup2\n      sload\n      dup2\n      lt\n      tag_52\n      jumpi\n      tag_53\n      tag_46\n      jump\t// in\n    tag_53:\n    tag_52:\n      swap1\n      0x00\n      mstore\n      keccak256(0x00, 0x20)\n      swap1\n      0x02\n      mul\n      add\n        /* \"Voting.sol\":1527:1555  candidates[getWinner()].name */\n      0x00\n      add\n      sload\n        /* \"Voting.sol\":1513:1555  winnerName_ = candidates[getWinner()].name */\n      swap1\n      pop\n        /* \"Voting.sol\":1433:1563  function getWinnerName() external view returns (bytes32 winnerName_) {\r... */\n      swap1\n      jump\t// out\n        /* \"Voting.sol\":311:340  Candidate[] public candidates */\n    tag_25:\n      0x02\n      dup2\n      dup2\n      sload\n      dup2\n      lt\n      tag_55\n      jumpi\n      0x00\n      dup1\n      revert\n    tag_55:\n      swap1\n      0x00\n      mstore\n      keccak256(0x00, 0x20)\n      swap1\n      0x02\n      mul\n      add\n      0x00\n      swap2\n      pop\n      swap1\n      pop\n      dup1\n      0x00\n      add\n      sload\n      swap1\n      dup1\n      0x01\n      add\n      sload\n      swap1\n      pop\n      dup3\n      jump\t// out\n        /* \"Voting.sol\":594:777  function grantVotingPermission(address voter) external {\r... */\n    tag_31:\n        /* \"Voting.sol\":682:689  creator */\n      0x00\n      dup1\n      sload\n      swap1\n      0x0100\n      exp\n      swap1\n      div\n      0xffffffffffffffffffffffffffffffffffffffff\n      and\n        /* \"Voting.sol\":668:689  msg.sender == creator */\n      0xffffffffffffffffffffffffffffffffffffffff\n      and\n        /* \"Voting.sol\":668:678  msg.sender */\n      caller\n        /* \"Voting.sol\":668:689  msg.sender == creator */\n      0xffffffffffffffffffffffffffffffffffffffff\n      and\n      eq\n        /* \"Voting.sol\":660:690  require(msg.sender == creator) */\n      tag_58\n      jumpi\n      0x00\n      dup1\n      revert\n    tag_58:\n        /* \"Voting.sol\":710:716  voters */\n      0x01\n        /* \"Voting.sol\":710:723  voters[voter] */\n      0x00\n        /* \"Voting.sol\":717:722  voter */\n      dup3\n        /* \"Voting.sol\":710:723  voters[voter] */\n      0xffffffffffffffffffffffffffffffffffffffff\n      and\n      0xffffffffffffffffffffffffffffffffffffffff\n      and\n      dup2\n      mstore\n      0x20\n      add\n      swap1\n      dup2\n      mstore\n      0x20\n      add\n      0x00\n      keccak256\n        /* \"Voting.sol\":710:729  voters[voter].voted */\n      0x00\n      add\n      0x01\n      swap1\n      sload\n      swap1\n      0x0100\n      exp\n      swap1\n      div\n      0xff\n      and\n        /* \"Voting.sol\":709:729  !voters[voter].voted */\n      iszero\n        /* \"Voting.sol\":701:730  require(!voters[voter].voted) */\n      tag_59\n      jumpi\n      0x00\n      dup1\n      revert\n    tag_59:\n        /* \"Voting.sol\":765:769  true */\n      0x01\n        /* \"Voting.sol\":741:747  voters */\n      dup1\n        /* \"Voting.sol\":741:754  voters[voter] */\n      0x00\n        /* \"Voting.sol\":748:753  voter */\n      dup4\n        /* \"Voting.sol\":741:754  voters[voter] */\n      0xffffffffffffffffffffffffffffffffffffffff\n      and\n      0xffffffffffffffffffffffffffffffffffffffff\n      and\n      dup2\n      mstore\n      0x20\n      add\n      swap1\n      dup2\n      mstore\n      0x20\n      add\n      0x00\n      keccak256\n        /* \"Voting.sol\":741:762  voters[voter].canVote */\n      0x00\n      add\n      0x00\n        /* \"Voting.sol\":741:769  voters[voter].canVote = true */\n      0x0100\n      exp\n      dup2\n      sload\n      dup2\n      0xff\n      mul\n      not\n      and\n      swap1\n      dup4\n      iszero\n      iszero\n      mul\n      or\n      swap1\n      sstore\n      pop\n        /* \"Voting.sol\":594:777  function grantVotingPermission(address voter) external {\r... */\n      pop\n      jump\t// out\n        /* \"Voting.sol\":1092:1425  function getWinner() public view returns (uint winner_) {\r... */\n    tag_33:\n        /* \"Voting.sol\":1134:1146  uint winner_ */\n      0x00\n        /* \"Voting.sol\":1159:1179  uint winnerVoteCount */\n      dup1\n        /* \"Voting.sol\":1182:1183  0 */\n      0x00\n        /* \"Voting.sol\":1159:1183  uint winnerVoteCount = 0 */\n      swap1\n      pop\n        /* \"Voting.sol\":1199:1205  uint i */\n      0x00\n        /* \"Voting.sol\":1194:1418  for (uint i = 0; i < candidates.length; i++) {\r... */\n    tag_61:\n        /* \"Voting.sol\":1215:1225  candidates */\n      0x02\n        /* \"Voting.sol\":1215:1232  candidates.length */\n      dup1\n      sload\n      swap1\n      pop\n        /* \"Voting.sol\":1211:1212  i */\n      dup2\n        /* \"Voting.sol\":1211:1232  i < candidates.length */\n      lt\n        /* \"Voting.sol\":1194:1418  for (uint i = 0; i < candidates.length; i++) {\r... */\n      iszero\n      tag_62\n      jumpi\n        /* \"Voting.sol\":1284:1299  winnerVoteCount */\n      dup2\n        /* \"Voting.sol\":1258:1268  candidates */\n      0x02\n        /* \"Voting.sol\":1269:1270  i */\n      dup3\n        /* \"Voting.sol\":1258:1271  candidates[i] */\n      dup2\n      sload\n      dup2\n      lt\n      tag_64\n      jumpi\n      tag_65\n      tag_46\n      jump\t// in\n    tag_65:\n    tag_64:\n      swap1\n      0x00\n      mstore\n      keccak256(0x00, 0x20)\n      swap1\n      0x02\n      mul\n      add\n        /* \"Voting.sol\":1258:1281  candidates[i].voteCount */\n      0x01\n      add\n      sload\n        /* \"Voting.sol\":1258:1299  candidates[i].voteCount > winnerVoteCount */\n      gt\n        /* \"Voting.sol\":1254:1407  if (candidates[i].voteCount > winnerVoteCount) {\r... */\n      iszero\n      tag_67\n      jumpi\n        /* \"Voting.sol\":1338:1348  candidates */\n      0x02\n        /* \"Voting.sol\":1349:1350  i */\n      dup2\n        /* \"Voting.sol\":1338:1351  candidates[i] */\n      dup2\n      sload\n      dup2\n      lt\n      tag_68\n      jumpi\n      tag_69\n      tag_46\n      jump\t// in\n    tag_69:\n    tag_68:\n      swap1\n      0x00\n      mstore\n      keccak256(0x00, 0x20)\n      swap1\n      0x02\n      mul\n      add\n        /* \"Voting.sol\":1338:1361  candidates[i].voteCount */\n      0x01\n      add\n      sload\n        /* \"Voting.sol\":1320:1361  winnerVoteCount = candidates[i].voteCount */\n      swap2\n      pop\n        /* \"Voting.sol\":1390:1391  i */\n      dup1\n        /* \"Voting.sol\":1380:1391  winner_ = i */\n      swap3\n      pop\n        /* \"Voting.sol\":1254:1407  if (candidates[i].voteCount > winnerVoteCount) {\r... */\n    tag_67:\n        /* \"Voting.sol\":1234:1237  i++ */\n      dup1\n      dup1\n      tag_71\n      swap1\n      tag_49\n      jump\t// in\n    tag_71:\n      swap2\n      pop\n      pop\n        /* \"Voting.sol\":1194:1418  for (uint i = 0; i < candidates.length; i++) {\r... */\n      jump(tag_61)\n    tag_62:\n      pop\n        /* \"Voting.sol\":1148:1425  {\r... */\n      pop\n        /* \"Voting.sol\":1092:1425  function getWinner() public view returns (uint winner_) {\r... */\n      swap1\n      jump\t// out\n        /* \"Voting.sol\":263:302  mapping(address => Voter) public voters */\n    tag_38:\n      mstore(0x20, 0x01)\n      dup1\n      0x00\n      mstore\n      keccak256(0x00, 0x40)\n      0x00\n      swap2\n      pop\n      swap1\n      pop\n      dup1\n      0x00\n      add\n      0x00\n      swap1\n      sload\n      swap1\n      0x0100\n      exp\n      swap1\n      div\n      0xff\n      and\n      swap1\n      dup1\n      0x00\n      add\n      0x01\n      swap1\n      sload\n      swap1\n      0x0100\n      exp\n      swap1\n      div\n      0xff\n      and\n      swap1\n      dup1\n      0x01\n      add\n      sload\n      swap1\n      pop\n      dup4\n      jump\t// out\n        /* \"#utility.yul\":7:146   */\n    tag_73:\n        /* \"#utility.yul\":53:58   */\n      0x00\n        /* \"#utility.yul\":91:97   */\n      dup2\n        /* \"#utility.yul\":78:98   */\n      calldataload\n        /* \"#utility.yul\":69:98   */\n      swap1\n      pop\n        /* \"#utility.yul\":107:140   */\n      tag_75\n        /* \"#utility.yul\":134:139   */\n      dup2\n        /* \"#utility.yul\":107:140   */\n      tag_76\n      jump\t// in\n    tag_75:\n        /* \"#utility.yul\":7:146   */\n      swap3\n      swap2\n      pop\n      pop\n      jump\t// out\n        /* \"#utility.yul\":152:291   */\n    tag_77:\n        /* \"#utility.yul\":198:203   */\n      0x00\n        /* \"#utility.yul\":236:242   */\n      dup2\n        /* \"#utility.yul\":223:243   */\n      calldataload\n        /* \"#utility.yul\":214:243   */\n      swap1\n      pop\n        /* \"#utility.yul\":252:285   */\n      tag_79\n        /* \"#utility.yul\":279:284   */\n      dup2\n        /* \"#utility.yul\":252:285   */\n      tag_80\n      jump\t// in\n    tag_79:\n        /* \"#utility.yul\":152:291   */\n      swap3\n      swap2\n      pop\n      pop\n      jump\t// out\n        /* \"#utility.yul\":297:626   */\n    tag_30:\n        /* \"#utility.yul\":356:362   */\n      0x00\n        /* \"#utility.yul\":405:407   */\n      0x20\n        /* \"#utility.yul\":393:402   */\n      dup3\n        /* \"#utility.yul\":384:391   */\n      dup5\n        /* \"#utility.yul\":380:403   */\n      sub\n        /* \"#utility.yul\":376:408   */\n      slt\n        /* \"#utility.yul\":373:492   */\n      iszero\n      tag_82\n      jumpi\n        /* \"#utility.yul\":411:490   */\n      tag_83\n      tag_84\n      jump\t// in\n    tag_83:\n        /* \"#utility.yul\":373:492   */\n    tag_82:\n        /* \"#utility.yul\":531:532   */\n      0x00\n        /* \"#utility.yul\":556:609   */\n      tag_85\n        /* \"#utility.yul\":601:608   */\n      dup5\n        /* \"#utility.yul\":592:598   */\n      dup3\n        /* \"#utility.yul\":581:590   */\n      dup6\n        /* \"#utility.yul\":577:599   */\n      add\n        /* \"#utility.yul\":556:609   */\n      tag_73\n      jump\t// in\n    tag_85:\n        /* \"#utility.yul\":546:609   */\n      swap2\n      pop\n        /* \"#utility.yul\":502:619   */\n      pop\n        /* \"#utility.yul\":297:626   */\n      swap3\n      swap2\n      pop\n      pop\n      jump\t// out\n        /* \"#utility.yul\":632:961   */\n    tag_13:\n        /* \"#utility.yul\":691:697   */\n      0x00\n        /* \"#utility.yul\":740:742   */\n      0x20\n        /* \"#utility.yul\":728:737   */\n      dup3\n        /* \"#utility.yul\":719:726   */\n      dup5\n        /* \"#utility.yul\":715:738   */\n      sub\n        /* \"#utility.yul\":711:743   */\n      slt\n        /* \"#utility.yul\":708:827   */\n      iszero\n      tag_87\n      jumpi\n        /* \"#utility.yul\":746:825   */\n      tag_88\n      tag_84\n      jump\t// in\n    tag_88:\n        /* \"#utility.yul\":708:827   */\n    tag_87:\n        /* \"#utility.yul\":866:867   */\n      0x00\n        /* \"#utility.yul\":891:944   */\n      tag_89\n        /* \"#utility.yul\":936:943   */\n      dup5\n        /* \"#utility.yul\":927:933   */\n      dup3\n        /* \"#utility.yul\":916:925   */\n      dup6\n        /* \"#utility.yul\":912:934   */\n      add\n        /* \"#utility.yul\":891:944   */\n      tag_77\n      jump\t// in\n    tag_89:\n        /* \"#utility.yul\":881:944   */\n      swap2\n      pop\n        /* \"#utility.yul\":837:954   */\n      pop\n        /* \"#utility.yul\":632:961   */\n      swap3\n      swap2\n      pop\n      pop\n      jump\t// out\n        /* \"#utility.yul\":967:1085   */\n    tag_90:\n        /* \"#utility.yul\":1054:1078   */\n      tag_92\n        /* \"#utility.yul\":1072:1077   */\n      dup2\n        /* \"#utility.yul\":1054:1078   */\n      tag_93\n      jump\t// in\n    tag_92:\n        /* \"#utility.yul\":1049:1052   */\n      dup3\n        /* \"#utility.yul\":1042:1079   */\n      mstore\n        /* \"#utility.yul\":967:1085   */\n      pop\n      pop\n      jump\t// out\n        /* \"#utility.yul\":1091:1200   */\n    tag_94:\n        /* \"#utility.yul\":1172:1193   */\n      tag_96\n        /* \"#utility.yul\":1187:1192   */\n      dup2\n        /* \"#utility.yul\":1172:1193   */\n      tag_97\n      jump\t// in\n    tag_96:\n        /* \"#utility.yul\":1167:1170   */\n      dup3\n        /* \"#utility.yul\":1160:1194   */\n      mstore\n        /* \"#utility.yul\":1091:1200   */\n      pop\n      pop\n      jump\t// out\n        /* \"#utility.yul\":1206:1324   */\n    tag_98:\n        /* \"#utility.yul\":1293:1317   */\n      tag_100\n        /* \"#utility.yul\":1311:1316   */\n      dup2\n        /* \"#utility.yul\":1293:1317   */\n      tag_101\n      jump\t// in\n    tag_100:\n        /* \"#utility.yul\":1288:1291   */\n      dup3\n        /* \"#utility.yul\":1281:1318   */\n      mstore\n        /* \"#utility.yul\":1206:1324   */\n      pop\n      pop\n      jump\t// out\n        /* \"#utility.yul\":1330:1448   */\n    tag_102:\n        /* \"#utility.yul\":1417:1441   */\n      tag_104\n        /* \"#utility.yul\":1435:1440   */\n      dup2\n        /* \"#utility.yul\":1417:1441   */\n      tag_105\n      jump\t// in\n    tag_104:\n        /* \"#utility.yul\":1412:1415   */\n      dup3\n        /* \"#utility.yul\":1405:1442   */\n      mstore\n        /* \"#utility.yul\":1330:1448   */\n      pop\n      pop\n      jump\t// out\n        /* \"#utility.yul\":1454:1676   */\n    tag_18:\n        /* \"#utility.yul\":1547:1551   */\n      0x00\n        /* \"#utility.yul\":1585:1587   */\n      0x20\n        /* \"#utility.yul\":1574:1583   */\n      dup3\n        /* \"#utility.yul\":1570:1588   */\n      add\n        /* \"#utility.yul\":1562:1588   */\n      swap1\n      pop\n        /* \"#utility.yul\":1598:1669   */\n      tag_107\n        /* \"#utility.yul\":1666:1667   */\n      0x00\n        /* \"#utility.yul\":1655:1664   */\n      dup4\n        /* \"#utility.yul\":1651:1668   */\n      add\n        /* \"#utility.yul\":1642:1648   */\n      dup5\n        /* \"#utility.yul\":1598:1669   */\n      tag_90\n      jump\t// in\n    tag_107:\n        /* \"#utility.yul\":1454:1676   */\n      swap3\n      swap2\n      pop\n      pop\n      jump\t// out\n        /* \"#utility.yul\":1682:2100   */\n    tag_40:\n        /* \"#utility.yul\":1819:1823   */\n      0x00\n        /* \"#utility.yul\":1857:1859   */\n      0x60\n        /* \"#utility.yul\":1846:1855   */\n      dup3\n        /* \"#utility.yul\":1842:1860   */\n      add\n        /* \"#utility.yul\":1834:1860   */\n      swap1\n      pop\n        /* \"#utility.yul\":1870:1935   */\n      tag_109\n        /* \"#utility.yul\":1932:1933   */\n      0x00\n        /* \"#utility.yul\":1921:1930   */\n      dup4\n        /* \"#utility.yul\":1917:1934   */\n      add\n        /* \"#utility.yul\":1908:1914   */\n      dup7\n        /* \"#utility.yul\":1870:1935   */\n      tag_94\n      jump\t// in\n    tag_109:\n        /* \"#utility.yul\":1945:2011   */\n      tag_110\n        /* \"#utility.yul\":2007:2009   */\n      0x20\n        /* \"#utility.yul\":1996:2005   */\n      dup4\n        /* \"#utility.yul\":1992:2010   */\n      add\n        /* \"#utility.yul\":1983:1989   */\n      dup6\n        /* \"#utility.yul\":1945:2011   */\n      tag_94\n      jump\t// in\n    tag_110:\n        /* \"#utility.yul\":2021:2093   */\n      tag_111\n        /* \"#utility.yul\":2089:2091   */\n      0x40\n        /* \"#utility.yul\":2078:2087   */\n      dup4\n        /* \"#utility.yul\":2074:2092   */\n      add\n        /* \"#utility.yul\":2065:2071   */\n      dup5\n        /* \"#utility.yul\":2021:2093   */\n      tag_102\n      jump\t// in\n    tag_111:\n        /* \"#utility.yul\":1682:2100   */\n      swap5\n      swap4\n      pop\n      pop\n      pop\n      pop\n      jump\t// out\n        /* \"#utility.yul\":2106:2328   */\n    tag_22:\n        /* \"#utility.yul\":2199:2203   */\n      0x00\n        /* \"#utility.yul\":2237:2239   */\n      0x20\n        /* \"#utility.yul\":2226:2235   */\n      dup3\n        /* \"#utility.yul\":2222:2240   */\n      add\n        /* \"#utility.yul\":2214:2240   */\n      swap1\n      pop\n        /* \"#utility.yul\":2250:2321   */\n      tag_113\n        /* \"#utility.yul\":2318:2319   */\n      0x00\n        /* \"#utility.yul\":2307:2316   */\n      dup4\n        /* \"#utility.yul\":2303:2320   */\n      add\n        /* \"#utility.yul\":2294:2300   */\n      dup5\n        /* \"#utility.yul\":2250:2321   */\n      tag_98\n      jump\t// in\n    tag_113:\n        /* \"#utility.yul\":2106:2328   */\n      swap3\n      swap2\n      pop\n      pop\n      jump\t// out\n        /* \"#utility.yul\":2334:2666   */\n    tag_27:\n        /* \"#utility.yul\":2455:2459   */\n      0x00\n        /* \"#utility.yul\":2493:2495   */\n      0x40\n        /* \"#utility.yul\":2482:2491   */\n      dup3\n        /* \"#utility.yul\":2478:2496   */\n      add\n        /* \"#utility.yul\":2470:2496   */\n      swap1\n      pop\n        /* \"#utility.yul\":2506:2577   */\n      tag_115\n        /* \"#utility.yul\":2574:2575   */\n      0x00\n        /* \"#utility.yul\":2563:2572   */\n      dup4\n        /* \"#utility.yul\":2559:2576   */\n      add\n        /* \"#utility.yul\":2550:2556   */\n      dup6\n        /* \"#utility.yul\":2506:2577   */\n      tag_98\n      jump\t// in\n    tag_115:\n        /* \"#utility.yul\":2587:2659   */\n      tag_116\n        /* \"#utility.yul\":2655:2657   */\n      0x20\n        /* \"#utility.yul\":2644:2653   */\n      dup4\n        /* \"#utility.yul\":2640:2658   */\n      add\n        /* \"#utility.yul\":2631:2637   */\n      dup5\n        /* \"#utility.yul\":2587:2659   */\n      tag_102\n      jump\t// in\n    tag_116:\n        /* \"#utility.yul\":2334:2666   */\n      swap4\n      swap3\n      pop\n      pop\n      pop\n      jump\t// out\n        /* \"#utility.yul\":2672:2894   */\n    tag_35:\n        /* \"#utility.yul\":2765:2769   */\n      0x00\n        /* \"#utility.yul\":2803:2805   */\n      0x20\n        /* \"#utility.yul\":2792:2801   */\n      dup3\n        /* \"#utility.yul\":2788:2806   */\n      add\n        /* \"#utility.yul\":2780:2806   */\n      swap1\n      pop\n        /* \"#utility.yul\":2816:2887   */\n      tag_118\n        /* \"#utility.yul\":2884:2885   */\n      0x00\n        /* \"#utility.yul\":2873:2882   */\n      dup4\n        /* \"#utility.yul\":2869:2886   */\n      add\n        /* \"#utility.yul\":2860:2866   */\n      dup5\n        /* \"#utility.yul\":2816:2887   */\n      tag_102\n      jump\t// in\n    tag_118:\n        /* \"#utility.yul\":2672:2894   */\n      swap3\n      swap2\n      pop\n      pop\n      jump\t// out\n        /* \"#utility.yul\":2981:3077   */\n    tag_93:\n        /* \"#utility.yul\":3018:3025   */\n      0x00\n        /* \"#utility.yul\":3047:3071   */\n      tag_122\n        /* \"#utility.yul\":3065:3070   */\n      dup3\n        /* \"#utility.yul\":3047:3071   */\n      tag_123\n      jump\t// in\n    tag_122:\n        /* \"#utility.yul\":3036:3071   */\n      swap1\n      pop\n        /* \"#utility.yul\":2981:3077   */\n      swap2\n      swap1\n      pop\n      jump\t// out\n        /* \"#utility.yul\":3083:3173   */\n    tag_97:\n        /* \"#utility.yul\":3117:3124   */\n      0x00\n        /* \"#utility.yul\":3160:3165   */\n      dup2\n        /* \"#utility.yul\":3153:3166   */\n      iszero\n        /* \"#utility.yul\":3146:3167   */\n      iszero\n        /* \"#utility.yul\":3135:3167   */\n      swap1\n      pop\n        /* \"#utility.yul\":3083:3173   */\n      swap2\n      swap1\n      pop\n      jump\t// out\n        /* \"#utility.yul\":3179:3256   */\n    tag_101:\n        /* \"#utility.yul\":3216:3223   */\n      0x00\n        /* \"#utility.yul\":3245:3250   */\n      dup2\n        /* \"#utility.yul\":3234:3250   */\n      swap1\n      pop\n        /* \"#utility.yul\":3179:3256   */\n      swap2\n      swap1\n      pop\n      jump\t// out\n        /* \"#utility.yul\":3262:3388   */\n    tag_123:\n        /* \"#utility.yul\":3299:3306   */\n      0x00\n        /* \"#utility.yul\":3339:3381   */\n      0xffffffffffffffffffffffffffffffffffffffff\n        /* \"#utility.yul\":3332:3337   */\n      dup3\n        /* \"#utility.yul\":3328:3382   */\n      and\n        /* \"#utility.yul\":3317:3382   */\n      swap1\n      pop\n        /* \"#utility.yul\":3262:3388   */\n      swap2\n      swap1\n      pop\n      jump\t// out\n        /* \"#utility.yul\":3394:3471   */\n    tag_105:\n        /* \"#utility.yul\":3431:3438   */\n      0x00\n        /* \"#utility.yul\":3460:3465   */\n      dup2\n        /* \"#utility.yul\":3449:3465   */\n      swap1\n      pop\n        /* \"#utility.yul\":3394:3471   */\n      swap2\n      swap1\n      pop\n      jump\t// out\n        /* \"#utility.yul\":3477:3710   */\n    tag_49:\n        /* \"#utility.yul\":3516:3519   */\n      0x00\n        /* \"#utility.yul\":3539:3563   */\n      tag_129\n        /* \"#utility.yul\":3557:3562   */\n      dup3\n        /* \"#utility.yul\":3539:3563   */\n      tag_105\n      jump\t// in\n    tag_129:\n        /* \"#utility.yul\":3530:3563   */\n      swap2\n      pop\n        /* \"#utility.yul\":3585:3651   */\n      0xffffffffffffffffffffffffffffffffffffffffffffffffffffffffffffffff\n        /* \"#utility.yul\":3578:3583   */\n      dup3\n        /* \"#utility.yul\":3575:3652   */\n      eq\n        /* \"#utility.yul\":3572:3675   */\n      iszero\n      tag_130\n      jumpi\n        /* \"#utility.yul\":3655:3673   */\n      tag_131\n      tag_132\n      jump\t// in\n    tag_131:\n        /* \"#utility.yul\":3572:3675   */\n    tag_130:\n        /* \"#utility.yul\":3702:3703   */\n      0x01\n        /* \"#utility.yul\":3695:3700   */\n      dup3\n        /* \"#utility.yul\":3691:3704   */\n      add\n        /* \"#utility.yul\":3684:3704   */\n      swap1\n      pop\n        /* \"#utility.yul\":3477:3710   */\n      swap2\n      swap1\n      pop\n      jump\t// out\n        /* \"#utility.yul\":3716:3896   */\n    tag_132:\n        /* \"#utility.yul\":3764:3841   */\n      0x4e487b7100000000000000000000000000000000000000000000000000000000\n        /* \"#utility.yul\":3761:3762   */\n      0x00\n        /* \"#utility.yul\":3754:3842   */\n      mstore\n        /* \"#utility.yul\":3861:3865   */\n      0x11\n        /* \"#utility.yul\":3858:3859   */\n      0x04\n        /* \"#utility.yul\":3851:3866   */\n      mstore\n        /* \"#utility.yul\":3885:3889   */\n      0x24\n        /* \"#utility.yul\":3882:3883   */\n      0x00\n        /* \"#utility.yul\":3875:3890   */\n      revert\n        /* \"#utility.yul\":3902:4082   */\n    tag_46:\n        /* \"#utility.yul\":3950:4027   */\n      0x4e487b7100000000000000000000000000000000000000000000000000000000\n        /* \"#utility.yul\":3947:3948   */\n      0x00\n        /* \"#utility.yul\":3940:4028   */\n      mstore\n        /* \"#utility.yul\":4047:4051   */\n      0x32\n        /* \"#utility.yul\":4044:4045   */\n      0x04\n        /* \"#utility.yul\":4037:4052   */\n      mstore\n        /* \"#utility.yul\":4071:4075   */\n      0x24\n        /* \"#utility.yul\":4068:4069   */\n      0x00\n        /* \"#utility.yul\":4061:4076   */\n      revert\n        /* \"#utility.yul\":4211:4328   */\n    tag_84:\n        /* \"#utility.yul\":4320:4321   */\n      0x00\n        /* \"#utility.yul\":4317:4318   */\n      dup1\n        /* \"#utility.yul\":4310:4322   */\n      revert\n        /* \"#utility.yul\":4334:4456   */\n    tag_76:\n        /* \"#utility.yul\":4407:4431   */\n      tag_139\n        /* \"#utility.yul\":4425:4430   */\n      dup2\n        /* \"#utility.yul\":4407:4431   */\n      tag_93\n      jump\t// in\n    tag_139:\n        /* \"#utility.yul\":4400:4405   */\n      dup2\n        /* \"#utility.yul\":4397:4432   */\n      eq\n        /* \"#utility.yul\":4387:4450   */\n      tag_140\n      jumpi\n        /* \"#utility.yul\":4446:4447   */\n      0x00\n        /* \"#utility.yul\":4443:4444   */\n      dup1\n        /* \"#utility.yul\":4436:4448   */\n      revert\n        /* \"#utility.yul\":4387:4450   */\n    tag_140:\n        /* \"#utility.yul\":4334:4456   */\n      pop\n      jump\t// out\n        /* \"#utility.yul\":4462:4584   */\n    tag_80:\n        /* \"#utility.yul\":4535:4559   */\n      tag_142\n        /* \"#utility.yul\":4553:4558   */\n      dup2\n        /* \"#utility.yul\":4535:4559   */\n      tag_105\n      jump\t// in\n    tag_142:\n        /* \"#utility.yul\":4528:4533   */\n      dup2\n        /* \"#utility.yul\":4525:4560   */\n      eq\n        /* \"#utility.yul\":4515:4578   */\n      tag_143\n      jumpi\n        /* \"#utility.yul\":4574:4575   */\n      0x00\n        /* \"#utility.yul\":4571:4572   */\n      dup1\n        /* \"#utility.yul\":4564:4576   */\n      revert\n        /* \"#utility.yul\":4515:4578   */\n    tag_143:\n        /* \"#utility.yul\":4462:4584   */\n      pop\n      jump\t// out\n\n    auxdata: 0xa2646970667358221220a062181159a83d951272f1aedd87ba4530e33a9848c2de87836d420df95420ff64736f6c63430008070033\n}\n",
				"bytecode": {
					"linkReferences": {},
					"object": "60806040523480156200001157600080fd5b5060405162000b8f38038062000b8f8339818101604052810190620000379190620001db565b336000806101000a81548173ffffffffffffffffffffffffffffffffffffffff021916908373ffffffffffffffffffffffffffffffffffffffff16021790555060005b81518110156200010e5760026040518060400160405280848481518110620000a757620000a66200034b565b5b60200260200101518152602001600081525090806001815401808255809150506001900390600052602060002090600202016000909190919091506000820151816000015560208201518160010155505080806200010590620002ce565b9150506200007a565b5050620003e8565b60006200012d620001278462000255565b6200022c565b90508083825260208201905082856020860282011115620001535762000152620003ae565b5b60005b858110156200018757816200016c8882620001c4565b84526020840193506020830192505060018101905062000156565b5050509392505050565b600082601f830112620001a957620001a8620003a9565b5b8151620001bb84826020860162000116565b91505092915050565b600081519050620001d581620003ce565b92915050565b600060208284031215620001f457620001f3620003b8565b5b600082015167ffffffffffffffff811115620002155762000214620003b3565b5b620002238482850162000191565b91505092915050565b6000620002386200024b565b905062000246828262000298565b919050565b6000604051905090565b600067ffffffffffffffff8211156200027357620002726200037a565b5b602082029050602081019050919050565b6000819050919050565b6000819050919050565b620002a382620003bd565b810181811067ffffffffffffffff82111715620002c557620002c46200037a565b5b80604052505050565b6000620002db826200028e565b91507fffffffffffffffffffffffffffffffffffffffffffffffffffffffffffffffff8214156200031157620003106200031c565b5b600182019050919050565b7f4e487b7100000000000000000000000000000000000000000000000000000000600052601160045260246000fd5b7f4e487b7100000000000000000000000000000000000000000000000000000000600052603260045260246000fd5b7f4e487b7100000000000000000000000000000000000000000000000000000000600052604160045260246000fd5b600080fd5b600080fd5b600080fd5b600080fd5b6000601f19601f8301169050919050565b620003d98162000284565b8114620003e557600080fd5b50565b61079780620003f86000396000f3fe608060405234801561001057600080fd5b506004361061007d5760003560e01c80633477ee2e1161005b5780633477ee2e146100da578063887833dd1461010b5780638e7ea5b214610127578063a3ec138d146101455761007d565b80630121b93f1461008257806302d05d3f1461009e5780632bfda515146100bc575b600080fd5b61009c6004803603810190610097919061051b565b610177565b005b6100a661025d565b6040516100b39190610584565b60405180910390f35b6100c4610281565b6040516100d191906105d6565b60405180910390f35b6100f460048036038101906100ef919061051b565b6102b5565b6040516101029291906105f1565b60405180910390f35b610125600480360381019061012091906104ee565b6102e9565b005b61012f6103f8565b60405161013c919061061a565b60405180910390f35b61015f600480360381019061015a91906104ee565b610480565b60405161016e9392919061059f565b60405180910390f35b6000600160003373ffffffffffffffffffffffffffffffffffffffff1673ffffffffffffffffffffffffffffffffffffffff1681526020019081526020016000209050600115158160000160009054906101000a900460ff161515146101dc57600080fd5b8060000160019054906101000a900460ff16156101f857600080fd5b60018160000160016101000a81548160ff02191690831515021790555081816001018190555060028281548110610232576102316106ff565b5b9060005260206000209060020201600101600081548092919061025490610687565b91905055505050565b60008054906101000a900473ffffffffffffffffffffffffffffffffffffffff1681565b6000600261028d6103f8565b8154811061029e5761029d6106ff565b5b906000526020600020906002020160000154905090565b600281815481106102c557600080fd5b90600052602060002090600202016000915090508060000154908060010154905082565b60008054906101000a900473ffffffffffffffffffffffffffffffffffffffff1673ffffffffffffffffffffffffffffffffffffffff163373ffffffffffffffffffffffffffffffffffffffff161461034157600080fd5b600160008273ffffffffffffffffffffffffffffffffffffffff1673ffffffffffffffffffffffffffffffffffffffff16815260200190815260200160002060000160019054906101000a900460ff161561039b57600080fd5b60018060008373ffffffffffffffffffffffffffffffffffffffff1673ffffffffffffffffffffffffffffffffffffffff16815260200190815260200160002060000160006101000a81548160ff02191690831515021790555050565b6000806000905060005b60028054905081101561047b578160028281548110610424576104236106ff565b5b906000526020600020906002020160010154111561046857600281815481106104505761044f6106ff565b5b90600052602060002090600202016001015491508092505b808061047390610687565b915050610402565b505090565b60016020528060005260406000206000915090508060000160009054906101000a900460ff16908060000160019054906101000a900460ff16908060010154905083565b6000813590506104d381610733565b92915050565b6000813590506104e88161074a565b92915050565b6000602082840312156105045761050361072e565b5b6000610512848285016104c4565b91505092915050565b6000602082840312156105315761053061072e565b5b600061053f848285016104d9565b91505092915050565b61055181610635565b82525050565b61056081610647565b82525050565b61056f81610653565b82525050565b61057e8161067d565b82525050565b60006020820190506105996000830184610548565b92915050565b60006060820190506105b46000830186610557565b6105c16020830185610557565b6105ce6040830184610575565b949350505050565b60006020820190506105eb6000830184610566565b92915050565b60006040820190506106066000830185610566565b6106136020830184610575565b9392505050565b600060208201905061062f6000830184610575565b92915050565b60006106408261065d565b9050919050565b60008115159050919050565b6000819050919050565b600073ffffffffffffffffffffffffffffffffffffffff82169050919050565b6000819050919050565b60006106928261067d565b91507fffffffffffffffffffffffffffffffffffffffffffffffffffffffffffffffff8214156106c5576106c46106d0565b5b600182019050919050565b7f4e487b7100000000000000000000000000000000000000000000000000000000600052601160045260246000fd5b7f4e487b7100000000000000000000000000000000000000000000000000000000600052603260045260246000fd5b600080fd5b61073c81610635565b811461074757600080fd5b50565b6107538161067d565b811461075e57600080fd5b5056fea2646970667358221220a062181159a83d951272f1aedd87ba4530e33a9848c2de87836d420df95420ff64736f6c63430008070033",
					"opcodes": "PUSH1 0x80 PUSH1 0x40 MSTORE CALLVALUE DUP1 ISZERO PUSH3 0x11 JUMPI PUSH1 0x0 DUP1 REVERT JUMPDEST POP PUSH1 0x40 MLOAD PUSH3 0xB8F CODESIZE SUB DUP1 PUSH3 0xB8F DUP4 CODECOPY DUP2 DUP2 ADD PUSH1 0x40 MSTORE DUP2 ADD SWAP1 PUSH3 0x37 SWAP2 SWAP1 PUSH3 0x1DB JUMP JUMPDEST CALLER PUSH1 0x0 DUP1 PUSH2 0x100 EXP DUP2 SLOAD DUP2 PUSH20 0xFFFFFFFFFFFFFFFFFFFFFFFFFFFFFFFFFFFFFFFF MUL NOT AND SWAP1 DUP4 PUSH20 0xFFFFFFFFFFFFFFFFFFFFFFFFFFFFFFFFFFFFFFFF AND MUL OR SWAP1 SSTORE POP PUSH1 0x0 JUMPDEST DUP2 MLOAD DUP2 LT ISZERO PUSH3 0x10E JUMPI PUSH1 0x2 PUSH1 0x40 MLOAD DUP1 PUSH1 0x40 ADD PUSH1 0x40 MSTORE DUP1 DUP5 DUP5 DUP2 MLOAD DUP2 LT PUSH3 0xA7 JUMPI PUSH3 0xA6 PUSH3 0x34B JUMP JUMPDEST JUMPDEST PUSH1 0x20 MUL PUSH1 0x20 ADD ADD MLOAD DUP2 MSTORE PUSH1 0x20 ADD PUSH1 0x0 DUP2 MSTORE POP SWAP1 DUP1 PUSH1 0x1 DUP2 SLOAD ADD DUP1 DUP3 SSTORE DUP1 SWAP2 POP POP PUSH1 0x1 SWAP1 SUB SWAP1 PUSH1 0x0 MSTORE PUSH1 0x20 PUSH1 0x0 KECCAK256 SWAP1 PUSH1 0x2 MUL ADD PUSH1 0x0 SWAP1 SWAP2 SWAP1 SWAP2 SWAP1 SWAP2 POP PUSH1 0x0 DUP3 ADD MLOAD DUP2 PUSH1 0x0 ADD SSTORE PUSH1 0x20 DUP3 ADD MLOAD DUP2 PUSH1 0x1 ADD SSTORE POP POP DUP1 DUP1 PUSH3 0x105 SWAP1 PUSH3 0x2CE JUMP JUMPDEST SWAP2 POP POP PUSH3 0x7A JUMP JUMPDEST POP POP PUSH3 0x3E8 JUMP JUMPDEST PUSH1 0x0 PUSH3 0x12D PUSH3 0x127 DUP5 PUSH3 0x255 JUMP JUMPDEST PUSH3 0x22C JUMP JUMPDEST SWAP1 POP DUP1 DUP4 DUP3 MSTORE PUSH1 0x20 DUP3 ADD SWAP1 POP DUP3 DUP6 PUSH1 0x20 DUP7 MUL DUP3 ADD GT ISZERO PUSH3 0x153 JUMPI PUSH3 0x152 PUSH3 0x3AE JUMP JUMPDEST JUMPDEST PUSH1 0x0 JUMPDEST DUP6 DUP2 LT ISZERO PUSH3 0x187 JUMPI DUP2 PUSH3 0x16C DUP9 DUP3 PUSH3 0x1C4 JUMP JUMPDEST DUP5 MSTORE PUSH1 0x20 DUP5 ADD SWAP4 POP PUSH1 0x20 DUP4 ADD SWAP3 POP POP PUSH1 0x1 DUP2 ADD SWAP1 POP PUSH3 0x156 JUMP JUMPDEST POP POP POP SWAP4 SWAP3 POP POP POP JUMP JUMPDEST PUSH1 0x0 DUP3 PUSH1 0x1F DUP4 ADD SLT PUSH3 0x1A9 JUMPI PUSH3 0x1A8 PUSH3 0x3A9 JUMP JUMPDEST JUMPDEST DUP2 MLOAD PUSH3 0x1BB DUP5 DUP3 PUSH1 0x20 DUP7 ADD PUSH3 0x116 JUMP JUMPDEST SWAP2 POP POP SWAP3 SWAP2 POP POP JUMP JUMPDEST PUSH1 0x0 DUP2 MLOAD SWAP1 POP PUSH3 0x1D5 DUP2 PUSH3 0x3CE JUMP JUMPDEST SWAP3 SWAP2 POP POP JUMP JUMPDEST PUSH1 0x0 PUSH1 0x20 DUP3 DUP5 SUB SLT ISZERO PUSH3 0x1F4 JUMPI PUSH3 0x1F3 PUSH3 0x3B8 JUMP JUMPDEST JUMPDEST PUSH1 0x0 DUP3 ADD MLOAD PUSH8 0xFFFFFFFFFFFFFFFF DUP2 GT ISZERO PUSH3 0x215 JUMPI PUSH3 0x214 PUSH3 0x3B3 JUMP JUMPDEST JUMPDEST PUSH3 0x223 DUP5 DUP3 DUP6 ADD PUSH3 0x191 JUMP JUMPDEST SWAP2 POP POP SWAP3 SWAP2 POP POP JUMP JUMPDEST PUSH1 0x0 PUSH3 0x238 PUSH3 0x24B JUMP JUMPDEST SWAP1 POP PUSH3 0x246 DUP3 DUP3 PUSH3 0x298 JUMP JUMPDEST SWAP2 SWAP1 POP JUMP JUMPDEST PUSH1 0x0 PUSH1 0x40 MLOAD SWAP1 POP SWAP1 JUMP JUMPDEST PUSH1 0x0 PUSH8 0xFFFFFFFFFFFFFFFF DUP3 GT ISZERO PUSH3 0x273 JUMPI PUSH3 0x272 PUSH3 0x37A JUMP JUMPDEST JUMPDEST PUSH1 0x20 DUP3 MUL SWAP1 POP PUSH1 0x20 DUP2 ADD SWAP1 POP SWAP2 SWAP1 POP JUMP JUMPDEST PUSH1 0x0 DUP2 SWAP1 POP SWAP2 SWAP1 POP JUMP JUMPDEST PUSH1 0x0 DUP2 SWAP1 POP SWAP2 SWAP1 POP JUMP JUMPDEST PUSH3 0x2A3 DUP3 PUSH3 0x3BD JUMP JUMPDEST DUP2 ADD DUP2 DUP2 LT PUSH8 0xFFFFFFFFFFFFFFFF DUP3 GT OR ISZERO PUSH3 0x2C5 JUMPI PUSH3 0x2C4 PUSH3 0x37A JUMP JUMPDEST JUMPDEST DUP1 PUSH1 0x40 MSTORE POP POP POP JUMP JUMPDEST PUSH1 0x0 PUSH3 0x2DB DUP3 PUSH3 0x28E JUMP JUMPDEST SWAP2 POP PUSH32 0xFFFFFFFFFFFFFFFFFFFFFFFFFFFFFFFFFFFFFFFFFFFFFFFFFFFFFFFFFFFFFFFF DUP3 EQ ISZERO PUSH3 0x311 JUMPI PUSH3 0x310 PUSH3 0x31C JUMP JUMPDEST JUMPDEST PUSH1 0x1 DUP3 ADD SWAP1 POP SWAP2 SWAP1 POP JUMP JUMPDEST PUSH32 0x4E487B7100000000000000000000000000000000000000000000000000000000 PUSH1 0x0 MSTORE PUSH1 0x11 PUSH1 0x4 MSTORE PUSH1 0x24 PUSH1 0x0 REVERT JUMPDEST PUSH32 0x4E487B7100000000000000000000000000000000000000000000000000000000 PUSH1 0x0 MSTORE PUSH1 0x32 PUSH1 0x4 MSTORE PUSH1 0x24 PUSH1 0x0 REVERT JUMPDEST PUSH32 0x4E487B7100000000000000000000000000000000000000000000000000000000 PUSH1 0x0 MSTORE PUSH1 0x41 PUSH1 0x4 MSTORE PUSH1 0x24 PUSH1 0x0 REVERT JUMPDEST PUSH1 0x0 DUP1 REVERT JUMPDEST PUSH1 0x0 DUP1 REVERT JUMPDEST PUSH1 0x0 DUP1 REVERT JUMPDEST PUSH1 0x0 DUP1 REVERT JUMPDEST PUSH1 0x0 PUSH1 0x1F NOT PUSH1 0x1F DUP4 ADD AND SWAP1 POP SWAP2 SWAP1 POP JUMP JUMPDEST PUSH3 0x3D9 DUP2 PUSH3 0x284 JUMP JUMPDEST DUP2 EQ PUSH3 0x3E5 JUMPI PUSH1 0x0 DUP1 REVERT JUMPDEST POP JUMP JUMPDEST PUSH2 0x797 DUP1 PUSH3 0x3F8 PUSH1 0x0 CODECOPY PUSH1 0x0 RETURN INVALID PUSH1 0x80 PUSH1 0x40 MSTORE CALLVALUE DUP1 ISZERO PUSH2 0x10 JUMPI PUSH1 0x0 DUP1 REVERT JUMPDEST POP PUSH1 0x4 CALLDATASIZE LT PUSH2 0x7D JUMPI PUSH1 0x0 CALLDATALOAD PUSH1 0xE0 SHR DUP1 PUSH4 0x3477EE2E GT PUSH2 0x5B JUMPI DUP1 PUSH4 0x3477EE2E EQ PUSH2 0xDA JUMPI DUP1 PUSH4 0x887833DD EQ PUSH2 0x10B JUMPI DUP1 PUSH4 0x8E7EA5B2 EQ PUSH2 0x127 JUMPI DUP1 PUSH4 0xA3EC138D EQ PUSH2 0x145 JUMPI PUSH2 0x7D JUMP JUMPDEST DUP1 PUSH4 0x121B93F EQ PUSH2 0x82 JUMPI DUP1 PUSH4 0x2D05D3F EQ PUSH2 0x9E JUMPI DUP1 PUSH4 0x2BFDA515 EQ PUSH2 0xBC JUMPI JUMPDEST PUSH1 0x0 DUP1 REVERT JUMPDEST PUSH2 0x9C PUSH1 0x4 DUP1 CALLDATASIZE SUB DUP2 ADD SWAP1 PUSH2 0x97 SWAP2 SWAP1 PUSH2 0x51B JUMP JUMPDEST PUSH2 0x177 JUMP JUMPDEST STOP JUMPDEST PUSH2 0xA6 PUSH2 0x25D JUMP JUMPDEST PUSH1 0x40 MLOAD PUSH2 0xB3 SWAP2 SWAP1 PUSH2 0x584 JUMP JUMPDEST PUSH1 0x40 MLOAD DUP1 SWAP2 SUB SWAP1 RETURN JUMPDEST PUSH2 0xC4 PUSH2 0x281 JUMP JUMPDEST PUSH1 0x40 MLOAD PUSH2 0xD1 SWAP2 SWAP1 PUSH2 0x5D6 JUMP JUMPDEST PUSH1 0x40 MLOAD DUP1 SWAP2 SUB SWAP1 RETURN JUMPDEST PUSH2 0xF4 PUSH1 0x4 DUP1 CALLDATASIZE SUB DUP2 ADD SWAP1 PUSH2 0xEF SWAP2 SWAP1 PUSH2 0x51B JUMP JUMPDEST PUSH2 0x2B5 JUMP JUMPDEST PUSH1 0x40 MLOAD PUSH2 0x102 SWAP3 SWAP2 SWAP1 PUSH2 0x5F1 JUMP JUMPDEST PUSH1 0x40 MLOAD DUP1 SWAP2 SUB SWAP1 RETURN JUMPDEST PUSH2 0x125 PUSH1 0x4 DUP1 CALLDATASIZE SUB DUP2 ADD SWAP1 PUSH2 0x120 SWAP2 SWAP1 PUSH2 0x4EE JUMP JUMPDEST PUSH2 0x2E9 JUMP JUMPDEST STOP JUMPDEST PUSH2 0x12F PUSH2 0x3F8 JUMP JUMPDEST PUSH1 0x40 MLOAD PUSH2 0x13C SWAP2 SWAP1 PUSH2 0x61A JUMP JUMPDEST PUSH1 0x40 MLOAD DUP1 SWAP2 SUB SWAP1 RETURN JUMPDEST PUSH2 0x15F PUSH1 0x4 DUP1 CALLDATASIZE SUB DUP2 ADD SWAP1 PUSH2 0x15A SWAP2 SWAP1 PUSH2 0x4EE JUMP JUMPDEST PUSH2 0x480 JUMP JUMPDEST PUSH1 0x40 MLOAD PUSH2 0x16E SWAP4 SWAP3 SWAP2 SWAP1 PUSH2 0x59F JUMP JUMPDEST PUSH1 0x40 MLOAD DUP1 SWAP2 SUB SWAP1 RETURN JUMPDEST PUSH1 0x0 PUSH1 0x1 PUSH1 0x0 CALLER PUSH20 0xFFFFFFFFFFFFFFFFFFFFFFFFFFFFFFFFFFFFFFFF AND PUSH20 0xFFFFFFFFFFFFFFFFFFFFFFFFFFFFFFFFFFFFFFFF AND DUP2 MSTORE PUSH1 0x20 ADD SWAP1 DUP2 MSTORE PUSH1 0x20 ADD PUSH1 0x0 KECCAK256 SWAP1 POP PUSH1 0x1 ISZERO ISZERO DUP2 PUSH1 0x0 ADD PUSH1 0x0 SWAP1 SLOAD SWAP1 PUSH2 0x100 EXP SWAP1 DIV PUSH1 0xFF AND ISZERO ISZERO EQ PUSH2 0x1DC JUMPI PUSH1 0x0 DUP1 REVERT JUMPDEST DUP1 PUSH1 0x0 ADD PUSH1 0x1 SWAP1 SLOAD SWAP1 PUSH2 0x100 EXP SWAP1 DIV PUSH1 0xFF AND ISZERO PUSH2 0x1F8 JUMPI PUSH1 0x0 DUP1 REVERT JUMPDEST PUSH1 0x1 DUP2 PUSH1 0x0 ADD PUSH1 0x1 PUSH2 0x100 EXP DUP2 SLOAD DUP2 PUSH1 0xFF MUL NOT AND SWAP1 DUP4 ISZERO ISZERO MUL OR SWAP1 SSTORE POP DUP2 DUP2 PUSH1 0x1 ADD DUP2 SWAP1 SSTORE POP PUSH1 0x2 DUP3 DUP2 SLOAD DUP2 LT PUSH2 0x232 JUMPI PUSH2 0x231 PUSH2 0x6FF JUMP JUMPDEST JUMPDEST SWAP1 PUSH1 0x0 MSTORE PUSH1 0x20 PUSH1 0x0 KECCAK256 SWAP1 PUSH1 0x2 MUL ADD PUSH1 0x1 ADD PUSH1 0x0 DUP2 SLOAD DUP1 SWAP3 SWAP2 SWAP1 PUSH2 0x254 SWAP1 PUSH2 0x687 JUMP JUMPDEST SWAP2 SWAP1 POP SSTORE POP POP POP JUMP JUMPDEST PUSH1 0x0 DUP1 SLOAD SWAP1 PUSH2 0x100 EXP SWAP1 DIV PUSH20 0xFFFFFFFFFFFFFFFFFFFFFFFFFFFFFFFFFFFFFFFF AND DUP2 JUMP JUMPDEST PUSH1 0x0 PUSH1 0x2 PUSH2 0x28D PUSH2 0x3F8 JUMP JUMPDEST DUP2 SLOAD DUP2 LT PUSH2 0x29E JUMPI PUSH2 0x29D PUSH2 0x6FF JUMP JUMPDEST JUMPDEST SWAP1 PUSH1 0x0 MSTORE PUSH1 0x20 PUSH1 0x0 KECCAK256 SWAP1 PUSH1 0x2 MUL ADD PUSH1 0x0 ADD SLOAD SWAP1 POP SWAP1 JUMP JUMPDEST PUSH1 0x2 DUP2 DUP2 SLOAD DUP2 LT PUSH2 0x2C5 JUMPI PUSH1 0x0 DUP1 REVERT JUMPDEST SWAP1 PUSH1 0x0 MSTORE PUSH1 0x20 PUSH1 0x0 KECCAK256 SWAP1 PUSH1 0x2 MUL ADD PUSH1 0x0 SWAP2 POP SWAP1 POP DUP1 PUSH1 0x0 ADD SLOAD SWAP1 DUP1 PUSH1 0x1 ADD SLOAD SWAP1 POP DUP3 JUMP JUMPDEST PUSH1 0x0 DUP1 SLOAD SWAP1 PUSH2 0x100 EXP SWAP1 DIV PUSH20 0xFFFFFFFFFFFFFFFFFFFFFFFFFFFFFFFFFFFFFFFF AND PUSH20 0xFFFFFFFFFFFFFFFFFFFFFFFFFFFFFFFFFFFFFFFF AND CALLER PUSH20 0xFFFFFFFFFFFFFFFFFFFFFFFFFFFFFFFFFFFFFFFF AND EQ PUSH2 0x341 JUMPI PUSH1 0x0 DUP1 REVERT JUMPDEST PUSH1 0x1 PUSH1 0x0 DUP3 PUSH20 0xFFFFFFFFFFFFFFFFFFFFFFFFFFFFFFFFFFFFFFFF AND PUSH20 0xFFFFFFFFFFFFFFFFFFFFFFFFFFFFFFFFFFFFFFFF AND DUP2 MSTORE PUSH1 0x20 ADD SWAP1 DUP2 MSTORE PUSH1 0x20 ADD PUSH1 0x0 KECCAK256 PUSH1 0x0 ADD PUSH1 0x1 SWAP1 SLOAD SWAP1 PUSH2 0x100 EXP SWAP1 DIV PUSH1 0xFF AND ISZERO PUSH2 0x39B JUMPI PUSH1 0x0 DUP1 REVERT JUMPDEST PUSH1 0x1 DUP1 PUSH1 0x0 DUP4 PUSH20 0xFFFFFFFFFFFFFFFFFFFFFFFFFFFFFFFFFFFFFFFF AND PUSH20 0xFFFFFFFFFFFFFFFFFFFFFFFFFFFFFFFFFFFFFFFF AND DUP2 MSTORE PUSH1 0x20 ADD SWAP1 DUP2 MSTORE PUSH1 0x20 ADD PUSH1 0x0 KECCAK256 PUSH1 0x0 ADD PUSH1 0x0 PUSH2 0x100 EXP DUP2 SLOAD DUP2 PUSH1 0xFF MUL NOT AND SWAP1 DUP4 ISZERO ISZERO MUL OR SWAP1 SSTORE POP POP JUMP JUMPDEST PUSH1 0x0 DUP1 PUSH1 0x0 SWAP1 POP PUSH1 0x0 JUMPDEST PUSH1 0x2 DUP1 SLOAD SWAP1 POP DUP2 LT ISZERO PUSH2 0x47B JUMPI DUP2 PUSH1 0x2 DUP3 DUP2 SLOAD DUP2 LT PUSH2 0x424 JUMPI PUSH2 0x423 PUSH2 0x6FF JUMP JUMPDEST JUMPDEST SWAP1 PUSH1 0x0 MSTORE PUSH1 0x20 PUSH1 0x0 KECCAK256 SWAP1 PUSH1 0x2 MUL ADD PUSH1 0x1 ADD SLOAD GT ISZERO PUSH2 0x468 JUMPI PUSH1 0x2 DUP2 DUP2 SLOAD DUP2 LT PUSH2 0x450 JUMPI PUSH2 0x44F PUSH2 0x6FF JUMP JUMPDEST JUMPDEST SWAP1 PUSH1 0x0 MSTORE PUSH1 0x20 PUSH1 0x0 KECCAK256 SWAP1 PUSH1 0x2 MUL ADD PUSH1 0x1 ADD SLOAD SWAP2 POP DUP1 SWAP3 POP JUMPDEST DUP1 DUP1 PUSH2 0x473 SWAP1 PUSH2 0x687 JUMP JUMPDEST SWAP2 POP POP PUSH2 0x402 JUMP JUMPDEST POP POP SWAP1 JUMP JUMPDEST PUSH1 0x1 PUSH1 0x20 MSTORE DUP1 PUSH1 0x0 MSTORE PUSH1 0x40 PUSH1 0x0 KECCAK256 PUSH1 0x0 SWAP2 POP SWAP1 POP DUP1 PUSH1 0x0 ADD PUSH1 0x0 SWAP1 SLOAD SWAP1 PUSH2 0x100 EXP SWAP1 DIV PUSH1 0xFF AND SWAP1 DUP1 PUSH1 0x0 ADD PUSH1 0x1 SWAP1 SLOAD SWAP1 PUSH2 0x100 EXP SWAP1 DIV PUSH1 0xFF AND SWAP1 DUP1 PUSH1 0x1 ADD SLOAD SWAP1 POP DUP4 JUMP JUMPDEST PUSH1 0x0 DUP2 CALLDATALOAD SWAP1 POP PUSH2 0x4D3 DUP2 PUSH2 0x733 JUMP JUMPDEST SWAP3 SWAP2 POP POP JUMP JUMPDEST PUSH1 0x0 DUP2 CALLDATALOAD SWAP1 POP PUSH2 0x4E8 DUP2 PUSH2 0x74A JUMP JUMPDEST SWAP3 SWAP2 POP POP JUMP JUMPDEST PUSH1 0x0 PUSH1 0x20 DUP3 DUP5 SUB SLT ISZERO PUSH2 0x504 JUMPI PUSH2 0x503 PUSH2 0x72E JUMP JUMPDEST JUMPDEST PUSH1 0x0 PUSH2 0x512 DUP5 DUP3 DUP6 ADD PUSH2 0x4C4 JUMP JUMPDEST SWAP2 POP POP SWAP3 SWAP2 POP POP JUMP JUMPDEST PUSH1 0x0 PUSH1 0x20 DUP3 DUP5 SUB SLT ISZERO PUSH2 0x531 JUMPI PUSH2 0x530 PUSH2 0x72E JUMP JUMPDEST JUMPDEST PUSH1 0x0 PUSH2 0x53F DUP5 DUP3 DUP6 ADD PUSH2 0x4D9 JUMP JUMPDEST SWAP2 POP POP SWAP3 SWAP2 POP POP JUMP JUMPDEST PUSH2 0x551 DUP2 PUSH2 0x635 JUMP JUMPDEST DUP3 MSTORE POP POP JUMP JUMPDEST PUSH2 0x560 DUP2 PUSH2 0x647 JUMP JUMPDEST DUP3 MSTORE POP POP JUMP JUMPDEST PUSH2 0x56F DUP2 PUSH2 0x653 JUMP JUMPDEST DUP3 MSTORE POP POP JUMP JUMPDEST PUSH2 0x57E DUP2 PUSH2 0x67D JUMP JUMPDEST DUP3 MSTORE POP POP JUMP JUMPDEST PUSH1 0x0 PUSH1 0x20 DUP3 ADD SWAP1 POP PUSH2 0x599 PUSH1 0x0 DUP4 ADD DUP5 PUSH2 0x548 JUMP JUMPDEST SWAP3 SWAP2 POP POP JUMP JUMPDEST PUSH1 0x0 PUSH1 0x60 DUP3 ADD SWAP1 POP PUSH2 0x5B4 PUSH1 0x0 DUP4 ADD DUP7 PUSH2 0x557 JUMP JUMPDEST PUSH2 0x5C1 PUSH1 0x20 DUP4 ADD DUP6 PUSH2 0x557 JUMP JUMPDEST PUSH2 0x5CE PUSH1 0x40 DUP4 ADD DUP5 PUSH2 0x575 JUMP JUMPDEST SWAP5 SWAP4 POP POP POP POP JUMP JUMPDEST PUSH1 0x0 PUSH1 0x20 DUP3 ADD SWAP1 POP PUSH2 0x5EB PUSH1 0x0 DUP4 ADD DUP5 PUSH2 0x566 JUMP JUMPDEST SWAP3 SWAP2 POP POP JUMP JUMPDEST PUSH1 0x0 PUSH1 0x40 DUP3 ADD SWAP1 POP PUSH2 0x606 PUSH1 0x0 DUP4 ADD DUP6 PUSH2 0x566 JUMP JUMPDEST PUSH2 0x613 PUSH1 0x20 DUP4 ADD DUP5 PUSH2 0x575 JUMP JUMPDEST SWAP4 SWAP3 POP POP POP JUMP JUMPDEST PUSH1 0x0 PUSH1 0x20 DUP3 ADD SWAP1 POP PUSH2 0x62F PUSH1 0x0 DUP4 ADD DUP5 PUSH2 0x575 JUMP JUMPDEST SWAP3 SWAP2 POP POP JUMP JUMPDEST PUSH1 0x0 PUSH2 0x640 DUP3 PUSH2 0x65D JUMP JUMPDEST SWAP1 POP SWAP2 SWAP1 POP JUMP JUMPDEST PUSH1 0x0 DUP2 ISZERO ISZERO SWAP1 POP SWAP2 SWAP1 POP JUMP JUMPDEST PUSH1 0x0 DUP2 SWAP1 POP SWAP2 SWAP1 POP JUMP JUMPDEST PUSH1 0x0 PUSH20 0xFFFFFFFFFFFFFFFFFFFFFFFFFFFFFFFFFFFFFFFF DUP3 AND SWAP1 POP SWAP2 SWAP1 POP JUMP JUMPDEST PUSH1 0x0 DUP2 SWAP1 POP SWAP2 SWAP1 POP JUMP JUMPDEST PUSH1 0x0 PUSH2 0x692 DUP3 PUSH2 0x67D JUMP JUMPDEST SWAP2 POP PUSH32 0xFFFFFFFFFFFFFFFFFFFFFFFFFFFFFFFFFFFFFFFFFFFFFFFFFFFFFFFFFFFFFFFF DUP3 EQ ISZERO PUSH2 0x6C5 JUMPI PUSH2 0x6C4 PUSH2 0x6D0 JUMP JUMPDEST JUMPDEST PUSH1 0x1 DUP3 ADD SWAP1 POP SWAP2 SWAP1 POP JUMP JUMPDEST PUSH32 0x4E487B7100000000000000000000000000000000000000000000000000000000 PUSH1 0x0 MSTORE PUSH1 0x11 PUSH1 0x4 MSTORE PUSH1 0x24 PUSH1 0x0 REVERT JUMPDEST PUSH32 0x4E487B7100000000000000000000000000000000000000000000000000000000 PUSH1 0x0 MSTORE PUSH1 0x32 PUSH1 0x4 MSTORE PUSH1 0x24 PUSH1 0x0 REVERT JUMPDEST PUSH1 0x0 DUP1 REVERT JUMPDEST PUSH2 0x73C DUP2 PUSH2 0x635 JUMP JUMPDEST DUP2 EQ PUSH2 0x747 JUMPI PUSH1 0x0 DUP1 REVERT JUMPDEST POP JUMP JUMPDEST PUSH2 0x753 DUP2 PUSH2 0x67D JUMP JUMPDEST DUP2 EQ PUSH2 0x75E JUMPI PUSH1 0x0 DUP1 REVERT JUMPDEST POP JUMP INVALID LOG2 PUSH5 0x6970667358 0x22 SLT KECCAK256 LOG0 PUSH3 0x181159 0xA8 RETURNDATASIZE SWAP6 SLT PUSH19 0xF1AEDD87BA4530E33A9848C2DE87836D420DF9 SLOAD KECCAK256 SELFDESTRUCT PUSH5 0x736F6C6343 STOP ADDMOD SMOD STOP CALLER "
				},
				"gasEstimates": {
					"creation": {
						"codeDepositCost": "388600",
						"executionCost": "infinite",
						"totalCost": "infinite"
					},
					"external": {
						"candidates(uint256)": "infinite",
						"creator()": "2534",
						"getWinner()": "infinite",
						"getWinnerName()": "infinite",
						"grantVotingPermission(address)": "29309",
						"vote(uint256)": "infinite",
						"voters(address)": "infinite"
					}
				},
				"methodIdentifiers": {
					"candidates(uint256)": "3477ee2e",
					"creator()": "02d05d3f",
					"getWinner()": "8e7ea5b2",
					"getWinnerName()": "2bfda515",
					"grantVotingPermission(address)": "887833dd",
					"vote(uint256)": "0121b93f",
					"voters(address)": "a3ec138d"
				}
			},
			"storageLayout": {
				"storage": [
					{
						"astId": 15,
						"contract": "Voting.sol:Voting",
						"label": "creator",
						"offset": 0,
						"slot": "0",
						"type": "t_address"
					},
					{
						"astId": 20,
						"contract": "Voting.sol:Voting",
						"label": "voters",
						"offset": 0,
						"slot": "1",
						"type": "t_mapping(t_address,t_struct(Voter)8_storage)"
					},
					{
						"astId": 24,
						"contract": "Voting.sol:Voting",
						"label": "candidates",
						"offset": 0,
						"slot": "2",
						"type": "t_array(t_struct(Candidate)13_storage)dyn_storage"
					}
				],
				"types": {
					"t_address": {
						"encoding": "inplace",
						"label": "address",
						"numberOfBytes": "20"
					},
					"t_array(t_struct(Candidate)13_storage)dyn_storage": {
						"base": "t_struct(Candidate)13_storage",
						"encoding": "dynamic_array",
						"label": "struct Voting.Candidate[]",
						"numberOfBytes": "32"
					},
					"t_bool": {
						"encoding": "inplace",
						"label": "bool",
						"numberOfBytes": "1"
					},
					"t_bytes32": {
						"encoding": "inplace",
						"label": "bytes32",
						"numberOfBytes": "32"
					},
					"t_mapping(t_address,t_struct(Voter)8_storage)": {
						"encoding": "mapping",
						"key": "t_address",
						"label": "mapping(address => struct Voting.Voter)",
						"numberOfBytes": "32",
						"value": "t_struct(Voter)8_storage"
					},
					"t_struct(Candidate)13_storage": {
						"encoding": "inplace",
						"label": "struct Voting.Candidate",
						"members": [
							{
								"astId": 10,
								"contract": "Voting.sol:Voting",
								"label": "name",
								"offset": 0,
								"slot": "0",
								"type": "t_bytes32"
							},
							{
								"astId": 12,
								"contract": "Voting.sol:Voting",
								"label": "voteCount",
								"offset": 0,
								"slot": "1",
								"type": "t_uint256"
							}
						],
						"numberOfBytes": "64"
					},
					"t_struct(Voter)8_storage": {
						"encoding": "inplace",
						"label": "struct Voting.Voter",
						"members": [
							{
								"astId": 3,
								"contract": "Voting.sol:Voting",
								"label": "canVote",
								"offset": 0,
								"slot": "0",
								"type": "t_bool"
							},
							{
								"astId": 5,
								"contract": "Voting.sol:Voting",
								"label": "voted",
								"offset": 1,
								"slot": "0",
								"type": "t_bool"
							},
							{
								"astId": 7,
								"contract": "Voting.sol:Voting",
								"label": "vote",
								"offset": 0,
								"slot": "1",
								"type": "t_uint256"
							}
						],
						"numberOfBytes": "64"
					},
					"t_uint256": {
						"encoding": "inplace",
						"label": "uint256",
						"numberOfBytes": "32"
					}
				}
			},
			"userdoc": {
				"kind": "user",
				"methods": {},
				"version": 1
			}
		}
	}
}